{
    "_format": "hh-sol-artifact-1",
    "contractName": "AnimalColoringBook",
    "sourceName": "contracts/AnimalColoringBook.sol",
    "abi": [
        {
            "inputs": [
                {
                    "internalType": "address",
                    "name": "_owner",
                    "type": "address"
                },
                {
                    "internalType": "bytes32",
                    "name": "_merkleRoot",
                    "type": "bytes32"
                },
                {
                    "internalType": "contract IDescriptors",
                    "name": "_descriptors",
                    "type": "address"
                },
                {
                    "internalType": "address",
                    "name": "_gtap1Contract",
                    "type": "address"
                },
                {
                    "internalType": "address",
                    "name": "_wrappedGtap1Contract",
                    "type": "address"
                }
            ],
            "stateMutability": "nonpayable",
            "type": "constructor"
        },
        {
            "anonymous": false,
            "inputs": [
                {
                    "indexed": true,
                    "internalType": "address",
                    "name": "owner",
                    "type": "address"
                },
                {
                    "indexed": true,
                    "internalType": "address",
                    "name": "approved",
                    "type": "address"
                },
                {
                    "indexed": true,
                    "internalType": "uint256",
                    "name": "tokenId",
                    "type": "uint256"
                }
            ],
            "name": "Approval",
            "type": "event"
        },
        {
            "anonymous": false,
            "inputs": [
                {
                    "indexed": true,
                    "internalType": "address",
                    "name": "owner",
                    "type": "address"
                },
                {
                    "indexed": true,
                    "internalType": "address",
                    "name": "operator",
                    "type": "address"
                },
                {
                    "indexed": false,
                    "internalType": "bool",
                    "name": "approved",
                    "type": "bool"
                }
            ],
            "name": "ApprovalForAll",
            "type": "event"
        },
        {
            "anonymous": false,
            "inputs": [
                {
                    "indexed": true,
                    "internalType": "address",
                    "name": "previousOwner",
                    "type": "address"
                },
                {
                    "indexed": true,
                    "internalType": "address",
                    "name": "newOwner",
                    "type": "address"
                }
            ],
            "name": "OwnershipTransferred",
            "type": "event"
        },
        {
            "anonymous": false,
            "inputs": [
                {
                    "indexed": true,
                    "internalType": "address",
                    "name": "from",
                    "type": "address"
                },
                {
                    "indexed": true,
                    "internalType": "address",
                    "name": "to",
                    "type": "address"
                },
                {
                    "indexed": true,
                    "internalType": "uint256",
                    "name": "tokenId",
                    "type": "uint256"
                }
            ],
            "name": "Transfer",
            "type": "event"
        },
        {
            "inputs": [
                {
                    "internalType": "uint256",
                    "name": "",
                    "type": "uint256"
                }
            ],
            "name": "animalInfo",
            "outputs": [
                {
                    "internalType": "uint8",
                    "name": "animalType",
                    "type": "uint8"
                },
                {
                    "internalType": "uint8",
                    "name": "mood",
                    "type": "uint8"
                }
            ],
            "stateMutability": "view",
            "type": "function"
        },
        {
            "inputs": [
                {
                    "internalType": "address",
                    "name": "to",
                    "type": "address"
                },
                {
                    "internalType": "uint256",
                    "name": "tokenId",
                    "type": "uint256"
                }
            ],
            "name": "approve",
            "outputs": [],
            "stateMutability": "nonpayable",
            "type": "function"
        },
        {
            "inputs": [
                {
                    "internalType": "address",
                    "name": "owner",
                    "type": "address"
                }
            ],
            "name": "balanceOf",
            "outputs": [
                {
                    "internalType": "uint256",
                    "name": "",
                    "type": "uint256"
                }
            ],
            "stateMutability": "view",
            "type": "function"
        },
        {
            "inputs": [],
            "name": "descriptors",
            "outputs": [
                {
                    "internalType": "contract IDescriptors",
                    "name": "",
                    "type": "address"
                }
            ],
            "stateMutability": "view",
            "type": "function"
        },
        {
            "inputs": [
                {
                    "internalType": "uint256",
                    "name": "tokenId",
                    "type": "uint256"
                },
                {
                    "internalType": "uint256",
                    "name": "eraserTokenId",
                    "type": "uint256"
                }
            ],
            "name": "erase",
            "outputs": [],
            "stateMutability": "nonpayable",
            "type": "function"
        },
        {
            "inputs": [],
            "name": "eraserContract",
            "outputs": [
                {
                    "internalType": "address",
                    "name": "",
                    "type": "address"
                }
            ],
            "stateMutability": "view",
            "type": "function"
        },
        {
            "inputs": [],
            "name": "eraserMintFeeWei",
            "outputs": [
                {
                    "internalType": "uint256",
                    "name": "",
                    "type": "uint256"
                }
            ],
            "stateMutability": "view",
            "type": "function"
        },
        {
            "inputs": [
                {
                    "internalType": "uint256",
                    "name": "tokenId",
                    "type": "uint256"
                }
            ],
            "name": "getApproved",
            "outputs": [
                {
                    "internalType": "address",
                    "name": "",
                    "type": "address"
                }
            ],
            "stateMutability": "view",
            "type": "function"
        },
        {
            "inputs": [],
            "name": "gtap1Contract",
            "outputs": [
                {
                    "internalType": "address",
                    "name": "",
                    "type": "address"
                }
            ],
            "stateMutability": "view",
            "type": "function"
        },
        {
            "inputs": [
                {
                    "internalType": "address",
                    "name": "mintTo",
                    "type": "address"
                },
                {
                    "internalType": "bool",
                    "name": "mintEraser",
                    "type": "bool"
                },
                {
                    "internalType": "bytes32[]",
                    "name": "merkleProof",
                    "type": "bytes32[]"
                }
            ],
            "name": "gtap1HolderMint",
            "outputs": [],
            "stateMutability": "payable",
            "type": "function"
        },
        {
            "inputs": [
                {
                    "internalType": "address",
                    "name": "mintTo",
                    "type": "address"
                },
                {
                    "internalType": "uint256",
                    "name": "gtap1TokenId",
                    "type": "uint256"
                }
            ],
            "name": "gtap1OGHolderMint",
            "outputs": [],
            "stateMutability": "nonpayable",
            "type": "function"
        },
        {
            "inputs": [
                {
                    "internalType": "address",
                    "name": "",
                    "type": "address"
                }
            ],
            "name": "gtapHolderMintCount",
            "outputs": [
                {
                    "internalType": "uint256",
                    "name": "",
                    "type": "uint256"
                }
            ],
            "stateMutability": "view",
            "type": "function"
        },
        {
            "inputs": [
                {
                    "internalType": "address",
                    "name": "owner",
                    "type": "address"
                },
                {
                    "internalType": "address",
                    "name": "operator",
                    "type": "address"
                }
            ],
            "name": "isApprovedForAll",
            "outputs": [
                {
                    "internalType": "bool",
                    "name": "",
                    "type": "bool"
                }
            ],
            "stateMutability": "view",
            "type": "function"
        },
        {
            "inputs": [],
            "name": "maxNonOGCount",
            "outputs": [
                {
                    "internalType": "uint256",
                    "name": "",
                    "type": "uint256"
                }
            ],
            "stateMutability": "view",
            "type": "function"
        },
        {
            "inputs": [],
            "name": "merkleRoot",
            "outputs": [
                {
                    "internalType": "bytes32",
                    "name": "",
                    "type": "bytes32"
                }
            ],
            "stateMutability": "view",
            "type": "function"
        },
        {
            "inputs": [
                {
                    "internalType": "address",
                    "name": "mintTo",
                    "type": "address"
                },
                {
                    "internalType": "bool",
                    "name": "mintEraser",
                    "type": "bool"
                }
            ],
            "name": "mint",
            "outputs": [],
            "stateMutability": "payable",
            "type": "function"
        },
        {
            "inputs": [],
            "name": "mintFeeWei",
            "outputs": [
                {
                    "internalType": "uint256",
                    "name": "",
                    "type": "uint256"
                }
            ],
            "stateMutability": "view",
            "type": "function"
        },
        {
            "inputs": [],
            "name": "name",
            "outputs": [
                {
                    "internalType": "string",
                    "name": "",
                    "type": "string"
                }
            ],
            "stateMutability": "view",
            "type": "function"
        },
        {
            "inputs": [
                {
                    "internalType": "uint256",
                    "name": "",
                    "type": "uint256"
                }
            ],
            "name": "ogMintCount",
            "outputs": [
                {
                    "internalType": "uint256",
                    "name": "",
                    "type": "uint256"
                }
            ],
            "stateMutability": "view",
            "type": "function"
        },
        {
            "inputs": [],
            "name": "owner",
            "outputs": [
                {
                    "internalType": "address",
                    "name": "",
                    "type": "address"
                }
            ],
            "stateMutability": "view",
            "type": "function"
        },
        {
            "inputs": [
                {
                    "internalType": "uint256",
                    "name": "tokenId",
                    "type": "uint256"
                }
            ],
            "name": "ownerOf",
            "outputs": [
                {
                    "internalType": "address",
                    "name": "",
                    "type": "address"
                }
            ],
            "stateMutability": "view",
            "type": "function"
        },
        {
            "inputs": [
                {
                    "internalType": "address",
                    "name": "to",
                    "type": "address"
                },
                {
                    "internalType": "uint256",
                    "name": "amount",
                    "type": "uint256"
                }
            ],
            "name": "payOwner",
            "outputs": [],
            "stateMutability": "nonpayable",
            "type": "function"
        },
        {
            "inputs": [],
            "name": "publicMintintingOpenBlock",
            "outputs": [
                {
                    "internalType": "uint256",
                    "name": "",
                    "type": "uint256"
                }
            ],
            "stateMutability": "view",
            "type": "function"
        },
        {
            "inputs": [],
            "name": "renounceOwnership",
            "outputs": [],
            "stateMutability": "nonpayable",
            "type": "function"
        },
        {
            "inputs": [
                {
                    "internalType": "address",
                    "name": "from",
                    "type": "address"
                },
                {
                    "internalType": "address",
                    "name": "to",
                    "type": "address"
                },
                {
                    "internalType": "uint256",
                    "name": "tokenId",
                    "type": "uint256"
                }
            ],
            "name": "safeTransferFrom",
            "outputs": [],
            "stateMutability": "nonpayable",
            "type": "function"
        },
        {
            "inputs": [
                {
                    "internalType": "address",
                    "name": "from",
                    "type": "address"
                },
                {
                    "internalType": "address",
                    "name": "to",
                    "type": "address"
                },
                {
                    "internalType": "uint256",
                    "name": "tokenId",
                    "type": "uint256"
                },
                {
                    "internalType": "bytes",
                    "name": "_data",
                    "type": "bytes"
                }
            ],
            "name": "safeTransferFrom",
            "outputs": [],
            "stateMutability": "nonpayable",
            "type": "function"
        },
        {
            "inputs": [
                {
                    "internalType": "address",
                    "name": "operator",
                    "type": "address"
                },
                {
                    "internalType": "bool",
                    "name": "approved",
                    "type": "bool"
                }
            ],
            "name": "setApprovalForAll",
            "outputs": [],
            "stateMutability": "nonpayable",
            "type": "function"
        },
        {
            "inputs": [
                {
                    "internalType": "address",
                    "name": "_eraserContract",
                    "type": "address"
                }
            ],
            "name": "setEraser",
            "outputs": [],
            "stateMutability": "nonpayable",
            "type": "function"
        },
        {
            "inputs": [
                {
                    "internalType": "bytes4",
                    "name": "interfaceId",
                    "type": "bytes4"
                }
            ],
            "name": "supportsInterface",
            "outputs": [
                {
                    "internalType": "bool",
                    "name": "",
                    "type": "bool"
                }
            ],
            "stateMutability": "view",
            "type": "function"
        },
        {
            "inputs": [],
            "name": "symbol",
            "outputs": [
                {
                    "internalType": "string",
                    "name": "",
                    "type": "string"
                }
            ],
            "stateMutability": "view",
            "type": "function"
        },
        {
            "inputs": [
                {
                    "internalType": "uint256",
                    "name": "index",
                    "type": "uint256"
                }
            ],
            "name": "tokenByIndex",
            "outputs": [
                {
                    "internalType": "uint256",
                    "name": "",
                    "type": "uint256"
                }
            ],
            "stateMutability": "view",
            "type": "function"
        },
        {
            "inputs": [
                {
                    "internalType": "address",
                    "name": "owner",
                    "type": "address"
                },
                {
                    "internalType": "uint256",
                    "name": "index",
                    "type": "uint256"
                }
            ],
            "name": "tokenOfOwnerByIndex",
            "outputs": [
                {
                    "internalType": "uint256",
                    "name": "",
                    "type": "uint256"
                }
            ],
            "stateMutability": "view",
            "type": "function"
        },
        {
            "inputs": [
                {
                    "internalType": "uint256",
                    "name": "tokenId",
                    "type": "uint256"
                }
            ],
            "name": "tokenURI",
            "outputs": [
                {
                    "internalType": "string",
                    "name": "",
                    "type": "string"
                }
            ],
            "stateMutability": "view",
            "type": "function"
        },
        {
            "inputs": [],
            "name": "totalSupply",
            "outputs": [
                {
                    "internalType": "uint256",
                    "name": "",
                    "type": "uint256"
                }
            ],
            "stateMutability": "view",
            "type": "function"
        },
        {
            "inputs": [
                {
                    "internalType": "address",
                    "name": "from",
                    "type": "address"
                },
                {
                    "internalType": "address",
                    "name": "to",
                    "type": "address"
                },
                {
                    "internalType": "uint256",
                    "name": "tokenId",
                    "type": "uint256"
                }
            ],
            "name": "transferFrom",
            "outputs": [],
            "stateMutability": "nonpayable",
            "type": "function"
        },
        {
            "inputs": [
                {
                    "internalType": "uint256",
                    "name": "tokenId",
                    "type": "uint256"
                }
            ],
            "name": "transferHistory",
            "outputs": [
                {
                    "internalType": "address[]",
                    "name": "",
                    "type": "address[]"
                }
            ],
            "stateMutability": "view",
            "type": "function"
        },
        {
            "inputs": [
                {
                    "internalType": "address",
                    "name": "newOwner",
                    "type": "address"
                }
            ],
            "name": "transferOwnership",
            "outputs": [],
            "stateMutability": "nonpayable",
            "type": "function"
        },
        {
            "inputs": [],
            "name": "wrappedGtap1Contract",
            "outputs": [
                {
                    "internalType": "address",
                    "name": "",
                    "type": "address"
                }
            ],
            "stateMutability": "view",
            "type": "function"
        }
    ],
    "bytecode": "0x6101806040526702c68af0bb1400006101009081525067016345785d8a0000610120908152506103a8610140908152503480156200003c57600080fd5b506040516200582d3803806200582d833981810160405281019062000062919062000506565b6040518060400160405280601481526020017f416e696d616c20436f6c6f72696e6720426f6f6b0000000000000000000000008152506040518060400160405280600581526020017f47544150320000000000000000000000000000000000000000000000000000008152508160009080519060200190620000e692919062000411565b508060019080519060200190620000ff92919062000411565b50505062000122620001166200020360201b60201c565b6200020b60201b60201c565b6200013385620002d160201b60201c565b8273ffffffffffffffffffffffffffffffffffffffff1660808173ffffffffffffffffffffffffffffffffffffffff1660601b81525050614844436200017a919062000631565b60e081815250508361016081815250508173ffffffffffffffffffffffffffffffffffffffff1660a08173ffffffffffffffffffffffffffffffffffffffff1660601b815250508073ffffffffffffffffffffffffffffffffffffffff1660c08173ffffffffffffffffffffffffffffffffffffffff1660601b81525050505050505062000849565b600033905090565b6000600a60009054906101000a900473ffffffffffffffffffffffffffffffffffffffff16905081600a60006101000a81548173ffffffffffffffffffffffffffffffffffffffff021916908373ffffffffffffffffffffffffffffffffffffffff1602179055508173ffffffffffffffffffffffffffffffffffffffff168173ffffffffffffffffffffffffffffffffffffffff167f8be0079c531659141344cd1fd0a4f28419497f9722a3daafe3b4186f6b6457e060405160405180910390a35050565b620002e16200020360201b60201c565b73ffffffffffffffffffffffffffffffffffffffff1662000307620003e760201b60201c565b73ffffffffffffffffffffffffffffffffffffffff161462000360576040517f08c379a00000000000000000000000000000000000000000000000000000000081526004016200035790620005fe565b60405180910390fd5b600073ffffffffffffffffffffffffffffffffffffffff168173ffffffffffffffffffffffffffffffffffffffff161415620003d3576040517f08c379a0000000000000000000000000000000000000000000000000000000008152600401620003ca90620005dc565b60405180910390fd5b620003e4816200020b60201b60201c565b50565b6000600a60009054906101000a900473ffffffffffffffffffffffffffffffffffffffff16905090565b8280546200041f90620006ea565b90600052602060002090601f0160209004810192826200044357600085556200048f565b82601f106200045e57805160ff19168380011785556200048f565b828001600101855582156200048f579182015b828111156200048e57825182559160200191906001019062000471565b5b5090506200049e9190620004a2565b5090565b5b80821115620004bd576000816000905550600101620004a3565b5090565b600081519050620004d281620007fb565b92915050565b600081519050620004e98162000815565b92915050565b60008151905062000500816200082f565b92915050565b600080600080600060a086880312156200052557620005246200077e565b5b60006200053588828901620004c1565b95505060206200054888828901620004d8565b94505060406200055b88828901620004ef565b93505060606200056e88828901620004c1565b92505060806200058188828901620004c1565b9150509295509295909350565b60006200059d60268362000620565b9150620005aa8262000783565b604082019050919050565b6000620005c460208362000620565b9150620005d182620007d2565b602082019050919050565b60006020820190508181036000830152620005f7816200058e565b9050919050565b600060208201905081810360008301526200061981620005b5565b9050919050565b600082825260208201905092915050565b60006200063e82620006e0565b91506200064b83620006e0565b9250827fffffffffffffffffffffffffffffffffffffffffffffffffffffffffffffffff0382111562000683576200068262000720565b5b828201905092915050565b60006200069b82620006c0565b9050919050565b6000819050919050565b6000620006b9826200068e565b9050919050565b600073ffffffffffffffffffffffffffffffffffffffff82169050919050565b6000819050919050565b600060028204905060018216806200070357607f821691505b602082108114156200071a57620007196200074f565b5b50919050565b7f4e487b7100000000000000000000000000000000000000000000000000000000600052601160045260246000fd5b7f4e487b7100000000000000000000000000000000000000000000000000000000600052602260045260246000fd5b600080fd5b7f4f776e61626c653a206e6577206f776e657220697320746865207a65726f206160008201527f6464726573730000000000000000000000000000000000000000000000000000602082015250565b7f4f776e61626c653a2063616c6c6572206973206e6f7420746865206f776e6572600082015250565b62000806816200068e565b81146200081257600080fd5b50565b6200082081620006a2565b81146200082c57600080fd5b50565b6200083a81620006ac565b81146200084657600080fd5b50565b60805160601c60a05160601c60c05160601c60e05161010051610120516101405161016051614f216200090c600039600081816111fd0152611cc9015260008181610cf80152611f33015260008181610c66015281816114850152611bc701526000818161099b01528181610c4001528181610c8701528181611ba10152611be8015260006119200152600081816110ad01526120e3015260008181610f1a01528181610fe301526112c601526000818161177e0152611e7c0152614f216000f3fe6080604052600436106102255760003560e01c806370a0823111610123578063a11d389e116100ab578063d43d84831161006f578063d43d848314610838578063e985e9c514610863578063f2fde38b146108a0578063fdd73bd5146108c9578063fedd4267146108f457610225565b8063a11d389e14610764578063a22cb4651461078d578063ad2b0a34146107b6578063b88d4fde146107d2578063c87b56dd146107fb57610225565b80638da5cb5b116100f25780638da5cb5b1461068f5780638f228ff1146106ba5780639392e5b5146106e557806395d89b411461070e578063a06fa7ef1461073957610225565b806370a08231146105c1578063715018a6146105fe578063816c99de146106155780638730b5bc1461065257610225565b806325576cc4116101b15780633959327c116101755780633959327c146104ca57806342842e0e146104f35780634f6ccce71461051c57806359576bb8146105595780636352211e1461058457610225565b806325576cc4146103d15780632dd8b490146103fa5780632eb4a7ab146104375780632f745c5914610462578063313604971461049f57610225565b8063095ea7b3116101f8578063095ea7b3146102fa5780630c3300fe1461032357806318160ddd146103615780632097d3fb1461038c57806323b872dd146103a857610225565b806301ffc9a71461022a578063062205341461026757806306fdde0314610292578063081812fc146102bd575b600080fd5b34801561023657600080fd5b50610251600480360381019061024c91906137d0565b61091f565b60405161025e9190613f18565b60405180910390f35b34801561027357600080fd5b5061027c610999565b604051610289919061428b565b60405180910390f35b34801561029e57600080fd5b506102a76109bd565b6040516102b49190613f69565b60405180910390f35b3480156102c957600080fd5b506102e460048036038101906102df9190613873565b610a4f565b6040516102f19190613e8f565b60405180910390f35b34801561030657600080fd5b50610321600480360381019061031c9190613790565b610ad4565b005b34801561032f57600080fd5b5061034a60048036038101906103459190613873565b610bec565b6040516103589291906142cf565b60405180910390f35b34801561036d57600080fd5b50610376610c2a565b604051610383919061428b565b60405180910390f35b6103a660048036038101906103a191906136dc565b610c37565b005b3480156103b457600080fd5b506103cf60048036038101906103ca9190613606565b610d69565b005b3480156103dd57600080fd5b506103f860048036038101906103f39190613790565b610eab565b005b34801561040657600080fd5b50610421600480360381019061041c9190613873565b6111e3565b60405161042e919061428b565b60405180910390f35b34801561044357600080fd5b5061044c6111fb565b6040516104599190613f33565b60405180910390f35b34801561046e57600080fd5b5061048960048036038101906104849190613790565b61121f565b604051610496919061428b565b60405180910390f35b3480156104ab57600080fd5b506104b46112c4565b6040516104c19190613e8f565b60405180910390f35b3480156104d657600080fd5b506104f160048036038101906104ec9190613790565b6112e8565b005b3480156104ff57600080fd5b5061051a60048036038101906105159190613606565b6113f2565b005b34801561052857600080fd5b50610543600480360381019061053e9190613873565b611412565b604051610550919061428b565b60405180910390f35b34801561056557600080fd5b5061056e611483565b60405161057b919061428b565b60405180910390f35b34801561059057600080fd5b506105ab60048036038101906105a69190613873565b6114a7565b6040516105b89190613e8f565b60405180910390f35b3480156105cd57600080fd5b506105e860048036038101906105e3919061356c565b611559565b6040516105f5919061428b565b60405180910390f35b34801561060a57600080fd5b50610613611611565b005b34801561062157600080fd5b5061063c60048036038101906106379190613873565b611699565b6040516106499190613ef6565b60405180910390f35b34801561065e57600080fd5b506106796004803603810190610674919061356c565b61173a565b604051610686919061428b565b60405180910390f35b34801561069b57600080fd5b506106a4611752565b6040516106b19190613e8f565b60405180910390f35b3480156106c657600080fd5b506106cf61177c565b6040516106dc9190613f4e565b60405180910390f35b3480156106f157600080fd5b5061070c600480360381019061070791906138cd565b6117a0565b005b34801561071a57600080fd5b5061072361188c565b6040516107309190613f69565b60405180910390f35b34801561074557600080fd5b5061074e61191e565b60405161075b919061428b565b60405180910390f35b34801561077057600080fd5b5061078b6004803603810190610786919061356c565b611942565b005b34801561079957600080fd5b506107b460048036038101906107af91906136dc565b611a17565b005b6107d060048036038101906107cb919061371c565b611b98565b005b3480156107de57600080fd5b506107f960048036038101906107f49190613659565b611e16565b005b34801561080757600080fd5b50610822600480360381019061081d9190613873565b611e78565b60405161082f9190613f69565b60405180910390f35b34801561084457600080fd5b5061084d611f31565b60405161085a919061428b565b60405180910390f35b34801561086f57600080fd5b5061088a600480360381019061088591906135c6565b611f55565b6040516108979190613f18565b60405180910390f35b3480156108ac57600080fd5b506108c760048036038101906108c2919061356c565b611fe9565b005b3480156108d557600080fd5b506108de6120e1565b6040516108eb9190613e8f565b60405180910390f35b34801561090057600080fd5b50610909612105565b6040516109169190613e8f565b60405180910390f35b60007f780e9d63000000000000000000000000000000000000000000000000000000007bffffffffffffffffffffffffffffffffffffffffffffffffffffffff1916827bffffffffffffffffffffffffffffffffffffffffffffffffffffffff1916148061099257506109918261212b565b5b9050919050565b7f000000000000000000000000000000000000000000000000000000000000000081565b6060600080546109cc906145c6565b80601f01602080910402602001604051908101604052809291908181526020018280546109f8906145c6565b8015610a455780601f10610a1a57610100808354040283529160200191610a45565b820191906000526020600020905b815481529060010190602001808311610a2857829003601f168201915b5050505050905090565b6000610a5a8261220d565b610a99576040517f08c379a0000000000000000000000000000000000000000000000000000000008152600401610a909061412b565b60405180910390fd5b6004600083815260200190815260200160002060009054906101000a900473ffffffffffffffffffffffffffffffffffffffff169050919050565b6000610adf826114a7565b90508073ffffffffffffffffffffffffffffffffffffffff168373ffffffffffffffffffffffffffffffffffffffff161415610b50576040517f08c379a0000000000000000000000000000000000000000000000000000000008152600401610b47906141eb565b60405180910390fd5b8073ffffffffffffffffffffffffffffffffffffffff16610b6f612279565b73ffffffffffffffffffffffffffffffffffffffff161480610b9e5750610b9d81610b98612279565b611f55565b5b610bdd576040517f08c379a0000000000000000000000000000000000000000000000000000000008152600401610bd4906140ab565b60405180910390fd5b610be78383612281565b505050565b600d6020528060005260406000206000915090508060000160009054906101000a900460ff16908060000160019054906101000a900460ff16905082565b6000600880549050905090565b600081610c64577f0000000000000000000000000000000000000000000000000000000000000000610cb1565b7f00000000000000000000000000000000000000000000000000000000000000007f0000000000000000000000000000000000000000000000000000000000000000610cb091906143f0565b5b905080341015610cf6576040517f08c379a0000000000000000000000000000000000000000000000000000000008152600401610ced9061414b565b60405180910390fd5b7f0000000000000000000000000000000000000000000000000000000000000000600c5410610d5a576040517f08c379a0000000000000000000000000000000000000000000000000000000008152600401610d5190613f8b565b60405180910390fd5b610d64838361233a565b505050565b610d748383836124bb565b6004600e6000838152602001908152602001600020805490501015610ea657600e6000828152602001908152602001600020829080600181540180825580915050600190039060005260206000200160009091909190916101000a81548173ffffffffffffffffffffffffffffffffffffffff021916908373ffffffffffffffffffffffffffffffffffffffff1602179055506004600e6000838152602001908152602001600020805490501415610ea55760006001610e557f6d6f6f6400000000000000000000000000000000000000000000000000000000600a61251b565b610e5f9190614446565b905060068160ff1611610e725780610e75565b60015b600d600084815260200190815260200160002060000160016101000a81548160ff021916908360ff160217905550505b5b505050565b6000600f60008381526020019081526020016000205414610f01576040517f08c379a0000000000000000000000000000000000000000000000000000000008152600401610ef89061406b565b60405180910390fd5b3373ffffffffffffffffffffffffffffffffffffffff167f000000000000000000000000000000000000000000000000000000000000000073ffffffffffffffffffffffffffffffffffffffff16636352211e836040518263ffffffff1660e01b8152600401610f71919061428b565b60206040518083038186803b158015610f8957600080fd5b505afa158015610f9d573d6000803e3d6000fd5b505050506040513d601f19601f82011682018060405250810190610fc19190613599565b73ffffffffffffffffffffffffffffffffffffffff1614801561108e575060007f000000000000000000000000000000000000000000000000000000000000000073ffffffffffffffffffffffffffffffffffffffff16630e0c2e9e836040518263ffffffff1660e01b815260040161103a919061428b565b602060405180830381600087803b15801561105457600080fd5b505af1158015611068573d6000803e3d6000fd5b505050506040513d601f19601f8201168201806040525081019061108c91906138a0565b145b8061116c57503373ffffffffffffffffffffffffffffffffffffffff167f000000000000000000000000000000000000000000000000000000000000000073ffffffffffffffffffffffffffffffffffffffff16636352211e836040518263ffffffff1660e01b8152600401611104919061428b565b60206040518083038186803b15801561111c57600080fd5b505afa158015611130573d6000803e3d6000fd5b505050506040513d601f19601f820116820180604052508101906111549190613599565b73ffffffffffffffffffffffffffffffffffffffff16145b6111ab576040517f08c379a00000000000000000000000000000000000000000000000000000000081526004016111a29061420b565b60405180910390fd5b6111b682600161233a565b600f600082815260200190815260200160002060008154809291906111da90614629565b91905055505050565b600f6020528060005260406000206000915090505481565b7f000000000000000000000000000000000000000000000000000000000000000081565b600061122a83611559565b821061126b576040517f08c379a000000000000000000000000000000000000000000000000000000000815260040161126290613fab565b60405180910390fd5b600660008473ffffffffffffffffffffffffffffffffffffffff1673ffffffffffffffffffffffffffffffffffffffff168152602001908152602001600020600083815260200190815260200160002054905092915050565b7f000000000000000000000000000000000000000000000000000000000000000081565b6112f0612279565b73ffffffffffffffffffffffffffffffffffffffff1661130e611752565b73ffffffffffffffffffffffffffffffffffffffff1614611364576040517f08c379a000000000000000000000000000000000000000000000000000000000815260040161135b9061416b565b60405180910390fd5b478111156113a7576040517f08c379a000000000000000000000000000000000000000000000000000000000815260040161139e9061418b565b60405180910390fd5b8173ffffffffffffffffffffffffffffffffffffffff166108fc829081150290604051600060405180830381858888f193505050501580156113ed573d6000803e3d6000fd5b505050565b61140d83838360405180602001604052806000815250611e16565b505050565b600061141c610c2a565b821061145d576040517f08c379a00000000000000000000000000000000000000000000000000000000081526004016114549061424b565b60405180910390fd5b6008828154811061147157611470614797565b5b90600052602060002001549050919050565b7f000000000000000000000000000000000000000000000000000000000000000081565b6000806002600084815260200190815260200160002060009054906101000a900473ffffffffffffffffffffffffffffffffffffffff169050600073ffffffffffffffffffffffffffffffffffffffff168173ffffffffffffffffffffffffffffffffffffffff161415611550576040517f08c379a0000000000000000000000000000000000000000000000000000000008152600401611547906140eb565b60405180910390fd5b80915050919050565b60008073ffffffffffffffffffffffffffffffffffffffff168273ffffffffffffffffffffffffffffffffffffffff1614156115ca576040517f08c379a00000000000000000000000000000000000000000000000000000000081526004016115c1906140cb565b60405180910390fd5b600360008373ffffffffffffffffffffffffffffffffffffffff1673ffffffffffffffffffffffffffffffffffffffff168152602001908152602001600020549050919050565b611619612279565b73ffffffffffffffffffffffffffffffffffffffff16611637611752565b73ffffffffffffffffffffffffffffffffffffffff161461168d576040517f08c379a00000000000000000000000000000000000000000000000000000000081526004016116849061416b565b60405180910390fd5b611697600061258e565b565b6060600e600083815260200190815260200160002080548060200260200160405190810160405280929190818152602001828054801561172e57602002820191906000526020600020905b8160009054906101000a900473ffffffffffffffffffffffffffffffffffffffff1673ffffffffffffffffffffffffffffffffffffffff16815260200190600101908083116116e4575b50505050509050919050565b60106020528060005260406000206000915090505481565b6000600a60009054906101000a900473ffffffffffffffffffffffffffffffffffffffff16905090565b7f000000000000000000000000000000000000000000000000000000000000000081565b600b60009054906101000a900473ffffffffffffffffffffffffffffffffffffffff1673ffffffffffffffffffffffffffffffffffffffff166342966c68826040518263ffffffff1660e01b81526004016117fb919061428b565b600060405180830381600087803b15801561181557600080fd5b505af1158015611829573d6000803e3d6000fd5b50505050606080600e600085815260200190815260200160002090805190602001906118569291906132fc565b506000600d600085815260200190815260200160002060000160016101000a81548160ff021916908360ff160217905550505050565b60606001805461189b906145c6565b80601f01602080910402602001604051908101604052809291908181526020018280546118c7906145c6565b80156119145780601f106118e957610100808354040283529160200191611914565b820191906000526020600020905b8154815290600101906020018083116118f757829003601f168201915b5050505050905090565b7f000000000000000000000000000000000000000000000000000000000000000081565b600073ffffffffffffffffffffffffffffffffffffffff16600b60009054906101000a900473ffffffffffffffffffffffffffffffffffffffff1673ffffffffffffffffffffffffffffffffffffffff16146119d3576040517f08c379a00000000000000000000000000000000000000000000000000000000081526004016119ca9061426b565b60405180910390fd5b80600b60006101000a81548173ffffffffffffffffffffffffffffffffffffffff021916908373ffffffffffffffffffffffffffffffffffffffff16021790555050565b611a1f612279565b73ffffffffffffffffffffffffffffffffffffffff168273ffffffffffffffffffffffffffffffffffffffff161415611a8d576040517f08c379a0000000000000000000000000000000000000000000000000000000008152600401611a849061404b565b60405180910390fd5b8060056000611a9a612279565b73ffffffffffffffffffffffffffffffffffffffff1673ffffffffffffffffffffffffffffffffffffffff16815260200190815260200160002060008473ffffffffffffffffffffffffffffffffffffffff1673ffffffffffffffffffffffffffffffffffffffff16815260200190815260200160002060006101000a81548160ff0219169083151502179055508173ffffffffffffffffffffffffffffffffffffffff16611b47612279565b73ffffffffffffffffffffffffffffffffffffffff167f17307eab39ab6107e8899845ad3d59bd9653f200f220920489ca2b5937696c3183604051611b8c9190613f18565b60405180910390a35050565b600083611bc5577f0000000000000000000000000000000000000000000000000000000000000000611c12565b7f00000000000000000000000000000000000000000000000000000000000000007f0000000000000000000000000000000000000000000000000000000000000000611c1191906143f0565b5b905080341015611c57576040517f08c379a0000000000000000000000000000000000000000000000000000000008152600401611c4e9061414b565b60405180910390fd5b600033604051602001611c6a9190613dfa565b604051602081830303815290604052805190602001209050611cee848480806020026020016040519081016040528093929190818152602001838360200280828437600081840152601f19601f820116905080830192505050505050507f000000000000000000000000000000000000000000000000000000000000000083612654565b611d2d576040517f08c379a0000000000000000000000000000000000000000000000000000000008152600401611d24906141cb565b60405180910390fd5b6002601060003373ffffffffffffffffffffffffffffffffffffffff1673ffffffffffffffffffffffffffffffffffffffff1681526020019081526020016000205410611daf576040517f08c379a0000000000000000000000000000000000000000000000000000000008152600401611da69061406b565b60405180910390fd5b611db9868661233a565b601060003373ffffffffffffffffffffffffffffffffffffffff1673ffffffffffffffffffffffffffffffffffffffff1681526020019081526020016000206000815480929190611e0990614629565b9190505550505050505050565b611e27611e21612279565b8361270a565b611e66576040517f08c379a0000000000000000000000000000000000000000000000000000000008152600401611e5d9061422b565b60405180910390fd5b611e72848484846127e8565b50505050565b60607f000000000000000000000000000000000000000000000000000000000000000073ffffffffffffffffffffffffffffffffffffffff16638c4c1b2f83306040518363ffffffff1660e01b8152600401611ed59291906142a6565b60006040518083038186803b158015611eed57600080fd5b505afa158015611f01573d6000803e3d6000fd5b505050506040513d6000823e3d601f19601f82011682018060405250810190611f2a919061382a565b9050919050565b7f000000000000000000000000000000000000000000000000000000000000000081565b6000600560008473ffffffffffffffffffffffffffffffffffffffff1673ffffffffffffffffffffffffffffffffffffffff16815260200190815260200160002060008373ffffffffffffffffffffffffffffffffffffffff1673ffffffffffffffffffffffffffffffffffffffff16815260200190815260200160002060009054906101000a900460ff16905092915050565b611ff1612279565b73ffffffffffffffffffffffffffffffffffffffff1661200f611752565b73ffffffffffffffffffffffffffffffffffffffff1614612065576040517f08c379a000000000000000000000000000000000000000000000000000000000815260040161205c9061416b565b60405180910390fd5b600073ffffffffffffffffffffffffffffffffffffffff168173ffffffffffffffffffffffffffffffffffffffff1614156120d5576040517f08c379a00000000000000000000000000000000000000000000000000000000081526004016120cc90613feb565b60405180910390fd5b6120de8161258e565b50565b7f000000000000000000000000000000000000000000000000000000000000000081565b600b60009054906101000a900473ffffffffffffffffffffffffffffffffffffffff1681565b60007f80ac58cd000000000000000000000000000000000000000000000000000000007bffffffffffffffffffffffffffffffffffffffffffffffffffffffff1916827bffffffffffffffffffffffffffffffffffffffffffffffffffffffff191614806121f657507f5b5e139f000000000000000000000000000000000000000000000000000000007bffffffffffffffffffffffffffffffffffffffffffffffffffffffff1916827bffffffffffffffffffffffffffffffffffffffffffffffffffffffff1916145b80612206575061220582612844565b5b9050919050565b60008073ffffffffffffffffffffffffffffffffffffffff166002600084815260200190815260200160002060009054906101000a900473ffffffffffffffffffffffffffffffffffffffff1673ffffffffffffffffffffffffffffffffffffffff1614159050919050565b600033905090565b816004600083815260200190815260200160002060006101000a81548173ffffffffffffffffffffffffffffffffffffffff021916908373ffffffffffffffffffffffffffffffffffffffff160217905550808273ffffffffffffffffffffffffffffffffffffffff166122f4836114a7565b73ffffffffffffffffffffffffffffffffffffffff167f8c5be1e5ebec7d5bd14f71427d1e84f3dd0314c0f7b2291e5b200ac8c7c3b92560405160405180910390a45050565b61236882600c6000815461234d90614629565b919050819055604051806020016040528060008152506128ae565b60006123957f616e696d616c0000000000000000000000000000000000000000000000000000606561251b565b60ff1690506000601f82106123eb57603882106123e357604c82106123db57605b82106123d357606382106123cb5760066123ce565b60055b6123d6565b60045b6123de565b60035b6123e6565b60025b6123ee565b60015b905080600d6000600c54815260200190815260200160002060000160006101000a81548160ff021916908360ff16021790555082156124b557600b60009054906101000a900473ffffffffffffffffffffffffffffffffffffffff1673ffffffffffffffffffffffffffffffffffffffff16636a627842856040518263ffffffff1660e01b81526004016124829190613e8f565b600060405180830381600087803b15801561249c57600080fd5b505af11580156124b0573d6000803e3d6000fd5b505050505b50505050565b6124cc6124c6612279565b8261270a565b61250b576040517f08c379a00000000000000000000000000000000000000000000000000000000081526004016125029061422b565b60405180910390fd5b612516838383612909565b505050565b6000808260ff1614156125315760009050612588565b8142600c54338660405160200161254b9493929190613e41565b6040516020818303038152906040528051906020012060006020811061257457612573614797565b5b1a60f81b60f81c61258591906146aa565b90505b92915050565b6000600a60009054906101000a900473ffffffffffffffffffffffffffffffffffffffff16905081600a60006101000a81548173ffffffffffffffffffffffffffffffffffffffff021916908373ffffffffffffffffffffffffffffffffffffffff1602179055508173ffffffffffffffffffffffffffffffffffffffff168173ffffffffffffffffffffffffffffffffffffffff167f8be0079c531659141344cd1fd0a4f28419497f9722a3daafe3b4186f6b6457e060405160405180910390a35050565b60008082905060005b85518110156126fc57600086828151811061267b5761267a614797565b5b602002602001015190508083116126bc57828160405160200161269f929190613e15565b6040516020818303038152906040528051906020012092506126e8565b80836040516020016126cf929190613e15565b6040516020818303038152906040528051906020012092505b5080806126f490614629565b91505061265d565b508381149150509392505050565b60006127158261220d565b612754576040517f08c379a000000000000000000000000000000000000000000000000000000000815260040161274b9061408b565b60405180910390fd5b600061275f836114a7565b90508073ffffffffffffffffffffffffffffffffffffffff168473ffffffffffffffffffffffffffffffffffffffff1614806127ce57508373ffffffffffffffffffffffffffffffffffffffff166127b684610a4f565b73ffffffffffffffffffffffffffffffffffffffff16145b806127df57506127de8185611f55565b5b91505092915050565b6127f3848484612909565b6127ff84848484612b65565b61283e576040517f08c379a000000000000000000000000000000000000000000000000000000000815260040161283590613fcb565b60405180910390fd5b50505050565b60007f01ffc9a7000000000000000000000000000000000000000000000000000000007bffffffffffffffffffffffffffffffffffffffffffffffffffffffff1916827bffffffffffffffffffffffffffffffffffffffffffffffffffffffff1916149050919050565b6128b88383612cfc565b6128c56000848484612b65565b612904576040517f08c379a00000000000000000000000000000000000000000000000000000000081526004016128fb90613fcb565b60405180910390fd5b505050565b8273ffffffffffffffffffffffffffffffffffffffff16612929826114a7565b73ffffffffffffffffffffffffffffffffffffffff161461297f576040517f08c379a0000000000000000000000000000000000000000000000000000000008152600401612976906141ab565b60405180910390fd5b600073ffffffffffffffffffffffffffffffffffffffff168273ffffffffffffffffffffffffffffffffffffffff1614156129ef576040517f08c379a00000000000000000000000000000000000000000000000000000000081526004016129e69061402b565b60405180910390fd5b6129fa838383612eca565b612a05600082612281565b6001600360008573ffffffffffffffffffffffffffffffffffffffff1673ffffffffffffffffffffffffffffffffffffffff1681526020019081526020016000206000828254612a55919061447d565b925050819055506001600360008473ffffffffffffffffffffffffffffffffffffffff1673ffffffffffffffffffffffffffffffffffffffff1681526020019081526020016000206000828254612aac91906143f0565b92505081905550816002600083815260200190815260200160002060006101000a81548173ffffffffffffffffffffffffffffffffffffffff021916908373ffffffffffffffffffffffffffffffffffffffff160217905550808273ffffffffffffffffffffffffffffffffffffffff168473ffffffffffffffffffffffffffffffffffffffff167fddf252ad1be2c89b69c2b068fc378daa952ba7f163c4a11628f55a4df523b3ef60405160405180910390a4505050565b6000612b868473ffffffffffffffffffffffffffffffffffffffff16612fde565b15612cef578373ffffffffffffffffffffffffffffffffffffffff1663150b7a02612baf612279565b8786866040518563ffffffff1660e01b8152600401612bd19493929190613eaa565b602060405180830381600087803b158015612beb57600080fd5b505af1925050508015612c1c57506040513d601f19601f82011682018060405250810190612c1991906137fd565b60015b612c9f573d8060008114612c4c576040519150601f19603f3d011682016040523d82523d6000602084013e612c51565b606091505b50600081511415612c97576040517f08c379a0000000000000000000000000000000000000000000000000000000008152600401612c8e90613fcb565b60405180910390fd5b805181602001fd5b63150b7a0260e01b7bffffffffffffffffffffffffffffffffffffffffffffffffffffffff1916817bffffffffffffffffffffffffffffffffffffffffffffffffffffffff191614915050612cf4565b600190505b949350505050565b600073ffffffffffffffffffffffffffffffffffffffff168273ffffffffffffffffffffffffffffffffffffffff161415612d6c576040517f08c379a0000000000000000000000000000000000000000000000000000000008152600401612d639061410b565b60405180910390fd5b612d758161220d565b15612db5576040517f08c379a0000000000000000000000000000000000000000000000000000000008152600401612dac9061400b565b60405180910390fd5b612dc160008383612eca565b6001600360008473ffffffffffffffffffffffffffffffffffffffff1673ffffffffffffffffffffffffffffffffffffffff1681526020019081526020016000206000828254612e1191906143f0565b92505081905550816002600083815260200190815260200160002060006101000a81548173ffffffffffffffffffffffffffffffffffffffff021916908373ffffffffffffffffffffffffffffffffffffffff160217905550808273ffffffffffffffffffffffffffffffffffffffff16600073ffffffffffffffffffffffffffffffffffffffff167fddf252ad1be2c89b69c2b068fc378daa952ba7f163c4a11628f55a4df523b3ef60405160405180910390a45050565b612ed5838383612ff1565b600073ffffffffffffffffffffffffffffffffffffffff168373ffffffffffffffffffffffffffffffffffffffff161415612f1857612f1381612ff6565b612f57565b8173ffffffffffffffffffffffffffffffffffffffff168373ffffffffffffffffffffffffffffffffffffffff1614612f5657612f55838261303f565b5b5b600073ffffffffffffffffffffffffffffffffffffffff168273ffffffffffffffffffffffffffffffffffffffff161415612f9a57612f95816131ac565b612fd9565b8273ffffffffffffffffffffffffffffffffffffffff168273ffffffffffffffffffffffffffffffffffffffff1614612fd857612fd7828261327d565b5b5b505050565b600080823b905060008111915050919050565b505050565b6008805490506009600083815260200190815260200160002081905550600881908060018154018082558091505060019003906000526020600020016000909190919091505550565b6000600161304c84611559565b613056919061447d565b905060006007600084815260200190815260200160002054905081811461313b576000600660008673ffffffffffffffffffffffffffffffffffffffff1673ffffffffffffffffffffffffffffffffffffffff168152602001908152602001600020600084815260200190815260200160002054905080600660008773ffffffffffffffffffffffffffffffffffffffff1673ffffffffffffffffffffffffffffffffffffffff168152602001908152602001600020600084815260200190815260200160002081905550816007600083815260200190815260200160002081905550505b6007600084815260200190815260200160002060009055600660008573ffffffffffffffffffffffffffffffffffffffff1673ffffffffffffffffffffffffffffffffffffffff16815260200190815260200160002060008381526020019081526020016000206000905550505050565b600060016008805490506131c0919061447d565b90506000600960008481526020019081526020016000205490506000600883815481106131f0576131ef614797565b5b90600052602060002001549050806008838154811061321257613211614797565b5b90600052602060002001819055508160096000838152602001908152602001600020819055506009600085815260200190815260200160002060009055600880548061326157613260614768565b5b6001900381819060005260206000200160009055905550505050565b600061328883611559565b905081600660008573ffffffffffffffffffffffffffffffffffffffff1673ffffffffffffffffffffffffffffffffffffffff168152602001908152602001600020600083815260200190815260200160002081905550806007600084815260200190815260200160002081905550505050565b828054828255906000526020600020908101928215613375579160200282015b828111156133745782518260006101000a81548173ffffffffffffffffffffffffffffffffffffffff021916908373ffffffffffffffffffffffffffffffffffffffff1602179055509160200191906001019061331c565b5b5090506133829190613386565b5090565b5b8082111561339f576000816000905550600101613387565b5090565b60006133b66133b18461431d565b6142f8565b9050828152602081018484840111156133d2576133d1614804565b5b6133dd848285614584565b509392505050565b60006133f86133f38461434e565b6142f8565b90508281526020810184848401111561341457613413614804565b5b61341f848285614593565b509392505050565b60008135905061343681614e8f565b92915050565b60008151905061344b81614e8f565b92915050565b60008083601f840112613467576134666147fa565b5b8235905067ffffffffffffffff811115613484576134836147f5565b5b6020830191508360208202830111156134a05761349f6147ff565b5b9250929050565b6000813590506134b681614ea6565b92915050565b6000813590506134cb81614ebd565b92915050565b6000815190506134e081614ebd565b92915050565b600082601f8301126134fb576134fa6147fa565b5b813561350b8482602086016133a3565b91505092915050565b600082601f830112613529576135286147fa565b5b81516135398482602086016133e5565b91505092915050565b60008135905061355181614ed4565b92915050565b60008151905061356681614ed4565b92915050565b6000602082840312156135825761358161480e565b5b600061359084828501613427565b91505092915050565b6000602082840312156135af576135ae61480e565b5b60006135bd8482850161343c565b91505092915050565b600080604083850312156135dd576135dc61480e565b5b60006135eb85828601613427565b92505060206135fc85828601613427565b9150509250929050565b60008060006060848603121561361f5761361e61480e565b5b600061362d86828701613427565b935050602061363e86828701613427565b925050604061364f86828701613542565b9150509250925092565b600080600080608085870312156136735761367261480e565b5b600061368187828801613427565b945050602061369287828801613427565b93505060406136a387828801613542565b925050606085013567ffffffffffffffff8111156136c4576136c3614809565b5b6136d0878288016134e6565b91505092959194509250565b600080604083850312156136f3576136f261480e565b5b600061370185828601613427565b9250506020613712858286016134a7565b9150509250929050565b600080600080606085870312156137365761373561480e565b5b600061374487828801613427565b9450506020613755878288016134a7565b935050604085013567ffffffffffffffff81111561377657613775614809565b5b61378287828801613451565b925092505092959194509250565b600080604083850312156137a7576137a661480e565b5b60006137b585828601613427565b92505060206137c685828601613542565b9150509250929050565b6000602082840312156137e6576137e561480e565b5b60006137f4848285016134bc565b91505092915050565b6000602082840312156138135761381261480e565b5b6000613821848285016134d1565b91505092915050565b6000602082840312156138405761383f61480e565b5b600082015167ffffffffffffffff81111561385e5761385d614809565b5b61386a84828501613514565b91505092915050565b6000602082840312156138895761388861480e565b5b600061389784828501613542565b91505092915050565b6000602082840312156138b6576138b561480e565b5b60006138c484828501613557565b91505092915050565b600080604083850312156138e4576138e361480e565b5b60006138f285828601613542565b925050602061390385828601613542565b9150509250929050565b60006139198383613925565b60208301905092915050565b61392e816144b1565b82525050565b61393d816144b1565b82525050565b61395461394f826144b1565b614672565b82525050565b60006139658261438f565b61396f81856143bd565b935061397a8361437f565b8060005b838110156139ab578151613992888261390d565b975061399d836143b0565b92505060018101905061397e565b5085935050505092915050565b6139c1816144c3565b82525050565b6139d0816144cf565b82525050565b6139e76139e2826144cf565b614684565b82525050565b60006139f88261439a565b613a0281856143ce565b9350613a12818560208601614593565b613a1b81614813565b840191505092915050565b613a2f8161453c565b82525050565b613a3e81614560565b82525050565b6000613a4f826143a5565b613a5981856143df565b9350613a69818560208601614593565b613a7281614813565b840191505092915050565b6000613a8a6022836143df565b9150613a9582614831565b604082019050919050565b6000613aad602b836143df565b9150613ab882614880565b604082019050919050565b6000613ad06032836143df565b9150613adb826148cf565b604082019050919050565b6000613af36026836143df565b9150613afe8261491e565b604082019050919050565b6000613b16601c836143df565b9150613b218261496d565b602082019050919050565b6000613b396024836143df565b9150613b4482614996565b604082019050919050565b6000613b5c6019836143df565b9150613b67826149e5565b602082019050919050565b6000613b7f6024836143df565b9150613b8a82614a0e565b604082019050919050565b6000613ba2602c836143df565b9150613bad82614a5d565b604082019050919050565b6000613bc56038836143df565b9150613bd082614aac565b604082019050919050565b6000613be8602a836143df565b9150613bf382614afb565b604082019050919050565b6000613c0b6029836143df565b9150613c1682614b4a565b604082019050919050565b6000613c2e6020836143df565b9150613c3982614b99565b602082019050919050565b6000613c51602c836143df565b9150613c5c82614bc2565b604082019050919050565b6000613c74601f836143df565b9150613c7f82614c11565b602082019050919050565b6000613c976020836143df565b9150613ca282614c3a565b602082019050919050565b6000613cba600f836143df565b9150613cc582614c63565b602082019050919050565b6000613cdd6029836143df565b9150613ce882614c8c565b604082019050919050565b6000613d006021836143df565b9150613d0b82614cdb565b604082019050919050565b6000613d236021836143df565b9150613d2e82614d2a565b604082019050919050565b6000613d466030836143df565b9150613d5182614d79565b604082019050919050565b6000613d696031836143df565b9150613d7482614dc8565b604082019050919050565b6000613d8c602c836143df565b9150613d9782614e17565b604082019050919050565b6000613daf6003836143df565b9150613dba82614e66565b602082019050919050565b613dce81614525565b82525050565b613de5613de082614525565b6146a0565b82525050565b613df48161452f565b82525050565b6000613e068284613943565b60148201915081905092915050565b6000613e2182856139d6565b602082019150613e3182846139d6565b6020820191508190509392505050565b6000613e4d8287613dd4565b602082019150613e5d8286613dd4565b602082019150613e6d8285613943565b601482019150613e7d82846139d6565b60208201915081905095945050505050565b6000602082019050613ea46000830184613934565b92915050565b6000608082019050613ebf6000830187613934565b613ecc6020830186613934565b613ed96040830185613dc5565b8181036060830152613eeb81846139ed565b905095945050505050565b60006020820190508181036000830152613f10818461395a565b905092915050565b6000602082019050613f2d60008301846139b8565b92915050565b6000602082019050613f4860008301846139c7565b92915050565b6000602082019050613f636000830184613a35565b92915050565b60006020820190508181036000830152613f838184613a44565b905092915050565b60006020820190508181036000830152613fa481613a7d565b9050919050565b60006020820190508181036000830152613fc481613aa0565b9050919050565b60006020820190508181036000830152613fe481613ac3565b9050919050565b6000602082019050818103600083015261400481613ae6565b9050919050565b6000602082019050818103600083015261402481613b09565b9050919050565b6000602082019050818103600083015261404481613b2c565b9050919050565b6000602082019050818103600083015261406481613b4f565b9050919050565b6000602082019050818103600083015261408481613b72565b9050919050565b600060208201905081810360008301526140a481613b95565b9050919050565b600060208201905081810360008301526140c481613bb8565b9050919050565b600060208201905081810360008301526140e481613bdb565b9050919050565b6000602082019050818103600083015261410481613bfe565b9050919050565b6000602082019050818103600083015261412481613c21565b9050919050565b6000602082019050818103600083015261414481613c44565b9050919050565b6000602082019050818103600083015261416481613c67565b9050919050565b6000602082019050818103600083015261418481613c8a565b9050919050565b600060208201905081810360008301526141a481613cad565b9050919050565b600060208201905081810360008301526141c481613cd0565b9050919050565b600060208201905081810360008301526141e481613cf3565b9050919050565b6000602082019050818103600083015261420481613d16565b9050919050565b6000602082019050818103600083015261422481613d39565b9050919050565b6000602082019050818103600083015261424481613d5c565b9050919050565b6000602082019050818103600083015261426481613d7f565b9050919050565b6000602082019050818103600083015261428481613da2565b9050919050565b60006020820190506142a06000830184613dc5565b92915050565b60006040820190506142bb6000830185613dc5565b6142c86020830184613a26565b9392505050565b60006040820190506142e46000830185613deb565b6142f16020830184613deb565b9392505050565b6000614302614313565b905061430e82826145f8565b919050565b6000604051905090565b600067ffffffffffffffff821115614338576143376147c6565b5b61434182614813565b9050602081019050919050565b600067ffffffffffffffff821115614369576143686147c6565b5b61437282614813565b9050602081019050919050565b6000819050602082019050919050565b600081519050919050565b600081519050919050565b600081519050919050565b6000602082019050919050565b600082825260208201905092915050565b600082825260208201905092915050565b600082825260208201905092915050565b60006143fb82614525565b915061440683614525565b9250827fffffffffffffffffffffffffffffffffffffffffffffffffffffffffffffffff0382111561443b5761443a6146db565b5b828201905092915050565b60006144518261452f565b915061445c8361452f565b92508260ff03821115614472576144716146db565b5b828201905092915050565b600061448882614525565b915061449383614525565b9250828210156144a6576144a56146db565b5b828203905092915050565b60006144bc82614505565b9050919050565b60008115159050919050565b6000819050919050565b60007fffffffff0000000000000000000000000000000000000000000000000000000082169050919050565b600073ffffffffffffffffffffffffffffffffffffffff82169050919050565b6000819050919050565b600060ff82169050919050565b60006145478261454e565b9050919050565b600061455982614505565b9050919050565b600061456b82614572565b9050919050565b600061457d82614505565b9050919050565b82818337600083830152505050565b60005b838110156145b1578082015181840152602081019050614596565b838111156145c0576000848401525b50505050565b600060028204905060018216806145de57607f821691505b602082108114156145f2576145f1614739565b5b50919050565b61460182614813565b810181811067ffffffffffffffff821117156146205761461f6147c6565b5b80604052505050565b600061463482614525565b91507fffffffffffffffffffffffffffffffffffffffffffffffffffffffffffffffff821415614667576146666146db565b5b600182019050919050565b600061467d8261468e565b9050919050565b6000819050919050565b600061469982614824565b9050919050565b6000819050919050565b60006146b58261452f565b91506146c08361452f565b9250826146d0576146cf61470a565b5b828206905092915050565b7f4e487b7100000000000000000000000000000000000000000000000000000000600052601160045260246000fd5b7f4e487b7100000000000000000000000000000000000000000000000000000000600052601260045260246000fd5b7f4e487b7100000000000000000000000000000000000000000000000000000000600052602260045260246000fd5b7f4e487b7100000000000000000000000000000000000000000000000000000000600052603160045260246000fd5b7f4e487b7100000000000000000000000000000000000000000000000000000000600052603260045260246000fd5b7f4e487b7100000000000000000000000000000000000000000000000000000000600052604160045260246000fd5b600080fd5b600080fd5b600080fd5b600080fd5b600080fd5b600080fd5b6000601f19601f8301169050919050565b60008160601b9050919050565b7f416e696d616c436f6c6f72696e67426f6f6b3a206d696e74696e6720636c6f7360008201527f6564000000000000000000000000000000000000000000000000000000000000602082015250565b7f455243373231456e756d657261626c653a206f776e657220696e646578206f7560008201527f74206f6620626f756e6473000000000000000000000000000000000000000000602082015250565b7f4552433732313a207472616e7366657220746f206e6f6e20455243373231526560008201527f63656976657220696d706c656d656e7465720000000000000000000000000000602082015250565b7f4f776e61626c653a206e6577206f776e657220697320746865207a65726f206160008201527f6464726573730000000000000000000000000000000000000000000000000000602082015250565b7f4552433732313a20746f6b656e20616c7265616479206d696e74656400000000600082015250565b7f4552433732313a207472616e7366657220746f20746865207a65726f2061646460008201527f7265737300000000000000000000000000000000000000000000000000000000602082015250565b7f4552433732313a20617070726f766520746f2063616c6c657200000000000000600082015250565b7f416e696d616c436f6c6f72696e67426f6f6b3a2072656163686564206d61782060008201527f6d696e7400000000000000000000000000000000000000000000000000000000602082015250565b7f4552433732313a206f70657261746f7220717565727920666f72206e6f6e657860008201527f697374656e7420746f6b656e0000000000000000000000000000000000000000602082015250565b7f4552433732313a20617070726f76652063616c6c6572206973206e6f74206f7760008201527f6e6572206e6f7220617070726f76656420666f7220616c6c0000000000000000602082015250565b7f4552433732313a2062616c616e636520717565727920666f7220746865207a6560008201527f726f206164647265737300000000000000000000000000000000000000000000602082015250565b7f4552433732313a206f776e657220717565727920666f72206e6f6e657869737460008201527f656e7420746f6b656e0000000000000000000000000000000000000000000000602082015250565b7f4552433732313a206d696e7420746f20746865207a65726f2061646472657373600082015250565b7f4552433732313a20617070726f76656420717565727920666f72206e6f6e657860008201527f697374656e7420746f6b656e0000000000000000000000000000000000000000602082015250565b7f416e696d616c436f6c6f72696e67426f6f6b3a2066656520746f6f206c6f7700600082015250565b7f4f776e61626c653a2063616c6c6572206973206e6f7420746865206f776e6572600082015250565b7f616d6f756e7420746f6f20686967680000000000000000000000000000000000600082015250565b7f4552433732313a207472616e73666572206f6620746f6b656e2074686174206960008201527f73206e6f74206f776e0000000000000000000000000000000000000000000000602082015250565b7f416e696d616c436f6c6f72696e67426f6f6b3a20696e76616c69642070726f6f60008201527f6600000000000000000000000000000000000000000000000000000000000000602082015250565b7f4552433732313a20617070726f76616c20746f2063757272656e74206f776e6560008201527f7200000000000000000000000000000000000000000000000000000000000000602082015250565b7f416e696d616c436f6c6f72696e67426f6f6b3a206d757374206265206774617060008201527f31206f726967696e616c206f776e657200000000000000000000000000000000602082015250565b7f4552433732313a207472616e736665722063616c6c6572206973206e6f74206f60008201527f776e6572206e6f7220617070726f766564000000000000000000000000000000602082015250565b7f455243373231456e756d657261626c653a20676c6f62616c20696e646578206f60008201527f7574206f6620626f756e64730000000000000000000000000000000000000000602082015250565b7f7365740000000000000000000000000000000000000000000000000000000000600082015250565b614e98816144b1565b8114614ea357600080fd5b50565b614eaf816144c3565b8114614eba57600080fd5b50565b614ec6816144d9565b8114614ed157600080fd5b50565b614edd81614525565b8114614ee857600080fd5b5056fea2646970667358221220dc3bf7a07a50e91d2dde8440f367af2380f01d9a373795868bac9873fa9d77df64736f6c63430008060033",
    "linkReferences": {},
    "deployedLinkReferences": {}
}