{
    "_format": "hh-sol-artifact-1",
    "contractName": "OtterColoringBook",
    "sourceName": "contracts/animalColoringBook/optimism/OtterColoringBookFaucet.sol",
    "abi": [
        {
            "inputs": [
                {
                    "internalType": "address",
                    "name": "_owner",
                    "type": "address"
                },
                {
                    "internalType": "contract IDescriptors",
                    "name": "_descriptors",
                    "type": "address"
                }
            ],
            "stateMutability": "nonpayable",
            "type": "constructor"
        },
        {
            "anonymous": false,
            "inputs": [
                {
                    "indexed": true,
                    "internalType": "address",
                    "name": "owner",
                    "type": "address"
                },
                {
                    "indexed": true,
                    "internalType": "address",
                    "name": "approved",
                    "type": "address"
                },
                {
                    "indexed": true,
                    "internalType": "uint256",
                    "name": "tokenId",
                    "type": "uint256"
                }
            ],
            "name": "Approval",
            "type": "event"
        },
        {
            "anonymous": false,
            "inputs": [
                {
                    "indexed": true,
                    "internalType": "address",
                    "name": "owner",
                    "type": "address"
                },
                {
                    "indexed": true,
                    "internalType": "address",
                    "name": "operator",
                    "type": "address"
                },
                {
                    "indexed": false,
                    "internalType": "bool",
                    "name": "approved",
                    "type": "bool"
                }
            ],
            "name": "ApprovalForAll",
            "type": "event"
        },
        {
            "anonymous": false,
            "inputs": [
                {
                    "indexed": true,
                    "internalType": "address",
                    "name": "previousOwner",
                    "type": "address"
                },
                {
                    "indexed": true,
                    "internalType": "address",
                    "name": "newOwner",
                    "type": "address"
                }
            ],
            "name": "OwnershipTransferred",
            "type": "event"
        },
        {
            "anonymous": false,
            "inputs": [
                {
                    "indexed": true,
                    "internalType": "address",
                    "name": "from",
                    "type": "address"
                },
                {
                    "indexed": true,
                    "internalType": "address",
                    "name": "to",
                    "type": "address"
                },
                {
                    "indexed": true,
                    "internalType": "uint256",
                    "name": "tokenId",
                    "type": "uint256"
                }
            ],
            "name": "Transfer",
            "type": "event"
        },
        {
            "inputs": [
                {
                    "internalType": "uint256",
                    "name": "",
                    "type": "uint256"
                }
            ],
            "name": "animalInfo",
            "outputs": [
                {
                    "internalType": "uint8",
                    "name": "animalType",
                    "type": "uint8"
                },
                {
                    "internalType": "uint8",
                    "name": "mood",
                    "type": "uint8"
                }
            ],
            "stateMutability": "view",
            "type": "function"
        },
        {
            "inputs": [
                {
                    "internalType": "address",
                    "name": "to",
                    "type": "address"
                },
                {
                    "internalType": "uint256",
                    "name": "tokenId",
                    "type": "uint256"
                }
            ],
            "name": "approve",
            "outputs": [],
            "stateMutability": "nonpayable",
            "type": "function"
        },
        {
            "inputs": [
                {
                    "internalType": "address",
                    "name": "owner",
                    "type": "address"
                }
            ],
            "name": "balanceOf",
            "outputs": [
                {
                    "internalType": "uint256",
                    "name": "",
                    "type": "uint256"
                }
            ],
            "stateMutability": "view",
            "type": "function"
        },
        {
            "inputs": [],
            "name": "descriptors",
            "outputs": [
                {
                    "internalType": "contract IDescriptors",
                    "name": "",
                    "type": "address"
                }
            ],
            "stateMutability": "view",
            "type": "function"
        },
        {
            "inputs": [
                {
                    "internalType": "uint256",
                    "name": "tokenId",
                    "type": "uint256"
                },
                {
                    "internalType": "uint256",
                    "name": "eraserTokenId",
                    "type": "uint256"
                }
            ],
            "name": "erase",
            "outputs": [],
            "stateMutability": "nonpayable",
            "type": "function"
        },
        {
            "inputs": [],
            "name": "eraserContract",
            "outputs": [
                {
                    "internalType": "address",
                    "name": "",
                    "type": "address"
                }
            ],
            "stateMutability": "view",
            "type": "function"
        },
        {
            "inputs": [
                {
                    "internalType": "uint256",
                    "name": "tokenId",
                    "type": "uint256"
                }
            ],
            "name": "getApproved",
            "outputs": [
                {
                    "internalType": "address",
                    "name": "",
                    "type": "address"
                }
            ],
            "stateMutability": "view",
            "type": "function"
        },
        {
            "inputs": [
                {
                    "internalType": "address",
                    "name": "owner",
                    "type": "address"
                },
                {
                    "internalType": "address",
                    "name": "operator",
                    "type": "address"
                }
            ],
            "name": "isApprovedForAll",
            "outputs": [
                {
                    "internalType": "bool",
                    "name": "",
                    "type": "bool"
                }
            ],
            "stateMutability": "view",
            "type": "function"
        },
        {
            "inputs": [
                {
                    "internalType": "address",
                    "name": "mintTo",
                    "type": "address"
                },
                {
                    "internalType": "bool",
                    "name": "mintEraser",
                    "type": "bool"
                }
            ],
            "name": "mint",
            "outputs": [],
            "stateMutability": "payable",
            "type": "function"
        },
        {
            "inputs": [],
            "name": "name",
            "outputs": [
                {
                    "internalType": "string",
                    "name": "",
                    "type": "string"
                }
            ],
            "stateMutability": "view",
            "type": "function"
        },
        {
            "inputs": [],
            "name": "owner",
            "outputs": [
                {
                    "internalType": "address",
                    "name": "",
                    "type": "address"
                }
            ],
            "stateMutability": "view",
            "type": "function"
        },
        {
            "inputs": [
                {
                    "internalType": "uint256",
                    "name": "tokenId",
                    "type": "uint256"
                }
            ],
            "name": "ownerOf",
            "outputs": [
                {
                    "internalType": "address",
                    "name": "",
                    "type": "address"
                }
            ],
            "stateMutability": "view",
            "type": "function"
        },
        {
            "inputs": [
                {
                    "internalType": "address",
                    "name": "to",
                    "type": "address"
                },
                {
                    "internalType": "uint256",
                    "name": "amount",
                    "type": "uint256"
                }
            ],
            "name": "payOwner",
            "outputs": [],
            "stateMutability": "nonpayable",
            "type": "function"
        },
        {
            "inputs": [],
            "name": "renounceOwnership",
            "outputs": [],
            "stateMutability": "nonpayable",
            "type": "function"
        },
        {
            "inputs": [
                {
                    "internalType": "address",
                    "name": "from",
                    "type": "address"
                },
                {
                    "internalType": "address",
                    "name": "to",
                    "type": "address"
                },
                {
                    "internalType": "uint256",
                    "name": "tokenId",
                    "type": "uint256"
                }
            ],
            "name": "safeTransferFrom",
            "outputs": [],
            "stateMutability": "nonpayable",
            "type": "function"
        },
        {
            "inputs": [
                {
                    "internalType": "address",
                    "name": "from",
                    "type": "address"
                },
                {
                    "internalType": "address",
                    "name": "to",
                    "type": "address"
                },
                {
                    "internalType": "uint256",
                    "name": "tokenId",
                    "type": "uint256"
                },
                {
                    "internalType": "bytes",
                    "name": "_data",
                    "type": "bytes"
                }
            ],
            "name": "safeTransferFrom",
            "outputs": [],
            "stateMutability": "nonpayable",
            "type": "function"
        },
        {
            "inputs": [
                {
                    "internalType": "address",
                    "name": "operator",
                    "type": "address"
                },
                {
                    "internalType": "bool",
                    "name": "approved",
                    "type": "bool"
                }
            ],
            "name": "setApprovalForAll",
            "outputs": [],
            "stateMutability": "nonpayable",
            "type": "function"
        },
        {
            "inputs": [
                {
                    "internalType": "address",
                    "name": "_eraserContract",
                    "type": "address"
                }
            ],
            "name": "setEraser",
            "outputs": [],
            "stateMutability": "nonpayable",
            "type": "function"
        },
        {
            "inputs": [
                {
                    "internalType": "bytes4",
                    "name": "interfaceId",
                    "type": "bytes4"
                }
            ],
            "name": "supportsInterface",
            "outputs": [
                {
                    "internalType": "bool",
                    "name": "",
                    "type": "bool"
                }
            ],
            "stateMutability": "view",
            "type": "function"
        },
        {
            "inputs": [],
            "name": "symbol",
            "outputs": [
                {
                    "internalType": "string",
                    "name": "",
                    "type": "string"
                }
            ],
            "stateMutability": "view",
            "type": "function"
        },
        {
            "inputs": [
                {
                    "internalType": "uint256",
                    "name": "index",
                    "type": "uint256"
                }
            ],
            "name": "tokenByIndex",
            "outputs": [
                {
                    "internalType": "uint256",
                    "name": "",
                    "type": "uint256"
                }
            ],
            "stateMutability": "view",
            "type": "function"
        },
        {
            "inputs": [
                {
                    "internalType": "address",
                    "name": "owner",
                    "type": "address"
                },
                {
                    "internalType": "uint256",
                    "name": "index",
                    "type": "uint256"
                }
            ],
            "name": "tokenOfOwnerByIndex",
            "outputs": [
                {
                    "internalType": "uint256",
                    "name": "",
                    "type": "uint256"
                }
            ],
            "stateMutability": "view",
            "type": "function"
        },
        {
            "inputs": [
                {
                    "internalType": "uint256",
                    "name": "tokenId",
                    "type": "uint256"
                }
            ],
            "name": "tokenURI",
            "outputs": [
                {
                    "internalType": "string",
                    "name": "",
                    "type": "string"
                }
            ],
            "stateMutability": "view",
            "type": "function"
        },
        {
            "inputs": [],
            "name": "totalSupply",
            "outputs": [
                {
                    "internalType": "uint256",
                    "name": "",
                    "type": "uint256"
                }
            ],
            "stateMutability": "view",
            "type": "function"
        },
        {
            "inputs": [
                {
                    "internalType": "address",
                    "name": "from",
                    "type": "address"
                },
                {
                    "internalType": "address",
                    "name": "to",
                    "type": "address"
                },
                {
                    "internalType": "uint256",
                    "name": "tokenId",
                    "type": "uint256"
                }
            ],
            "name": "transferFrom",
            "outputs": [],
            "stateMutability": "nonpayable",
            "type": "function"
        },
        {
            "inputs": [
                {
                    "internalType": "uint256",
                    "name": "tokenId",
                    "type": "uint256"
                }
            ],
            "name": "transferHistory",
            "outputs": [
                {
                    "internalType": "address[]",
                    "name": "",
                    "type": "address[]"
                }
            ],
            "stateMutability": "view",
            "type": "function"
        },
        {
            "inputs": [
                {
                    "internalType": "address",
                    "name": "newOwner",
                    "type": "address"
                }
            ],
            "name": "transferOwnership",
            "outputs": [],
            "stateMutability": "nonpayable",
            "type": "function"
        }
    ],
    "bytecode": "0x60a06040523480156200001157600080fd5b50604051620049a7380380620049a7833981810160405281019062000037919062000433565b6040518060400160405280601381526020017f4f7474657220436f6c6f72696e6720426f6f6b000000000000000000000000008152506040518060400160405280600381526020017f4f434200000000000000000000000000000000000000000000000000000000008152508160009080519060200190620000bb92919062000355565b508060019080519060200190620000d492919062000355565b505050620000f7620000eb6200014760201b60201c565b6200014f60201b60201c565b62000108826200021560201b60201c565b8073ffffffffffffffffffffffffffffffffffffffff1660808173ffffffffffffffffffffffffffffffffffffffff1660601b8152505050506200067b565b600033905090565b6000600a60009054906101000a900473ffffffffffffffffffffffffffffffffffffffff16905081600a60006101000a81548173ffffffffffffffffffffffffffffffffffffffff021916908373ffffffffffffffffffffffffffffffffffffffff1602179055508173ffffffffffffffffffffffffffffffffffffffff168173ffffffffffffffffffffffffffffffffffffffff167f8be0079c531659141344cd1fd0a4f28419497f9722a3daafe3b4186f6b6457e060405160405180910390a35050565b620002256200014760201b60201c565b73ffffffffffffffffffffffffffffffffffffffff166200024b6200032b60201b60201c565b73ffffffffffffffffffffffffffffffffffffffff1614620002a4576040517f08c379a00000000000000000000000000000000000000000000000000000000081526004016200029b90620004ea565b60405180910390fd5b600073ffffffffffffffffffffffffffffffffffffffff168173ffffffffffffffffffffffffffffffffffffffff16141562000317576040517f08c379a00000000000000000000000000000000000000000000000000000000081526004016200030e90620004c8565b60405180910390fd5b62000328816200014f60201b60201c565b50565b6000600a60009054906101000a900473ffffffffffffffffffffffffffffffffffffffff16905090565b828054620003639062000565565b90600052602060002090601f016020900481019282620003875760008555620003d3565b82601f10620003a257805160ff1916838001178555620003d3565b82800160010185558215620003d3579182015b82811115620003d2578251825591602001919060010190620003b5565b5b509050620003e29190620003e6565b5090565b5b8082111562000401576000816000905550600101620003e7565b5090565b600081519050620004168162000647565b92915050565b6000815190506200042d8162000661565b92915050565b600080604083850312156200044d576200044c620005ca565b5b60006200045d8582860162000405565b925050602062000470858286016200041c565b9150509250929050565b6000620004896026836200050c565b91506200049682620005cf565b604082019050919050565b6000620004b06020836200050c565b9150620004bd826200061e565b602082019050919050565b60006020820190508181036000830152620004e3816200047a565b9050919050565b600060208201905081810360008301526200050581620004a1565b9050919050565b600082825260208201905092915050565b60006200052a8262000545565b9050919050565b60006200053e826200051d565b9050919050565b600073ffffffffffffffffffffffffffffffffffffffff82169050919050565b600060028204905060018216806200057e57607f821691505b602082108114156200059557620005946200059b565b5b50919050565b7f4e487b7100000000000000000000000000000000000000000000000000000000600052602260045260246000fd5b600080fd5b7f4f776e61626c653a206e6577206f776e657220697320746865207a65726f206160008201527f6464726573730000000000000000000000000000000000000000000000000000602082015250565b7f4f776e61626c653a2063616c6c6572206973206e6f7420746865206f776e6572600082015250565b62000652816200051d565b81146200065e57600080fd5b50565b6200066c8162000531565b81146200067857600080fd5b50565b60805160601c614306620006a160003960008181611180015261181d01526143066000f3fe60806040526004361061019c5760003560e01c806370a08231116100ec578063a11d389e1161008a578063c87b56dd11610064578063c87b56dd146105dc578063e985e9c514610619578063f2fde38b14610656578063fedd42671461067f5761019c565b8063a11d389e14610561578063a22cb4651461058a578063b88d4fde146105b35761019c565b80638da5cb5b116100c65780638da5cb5b146104b75780638f228ff1146104e25780639392e5b51461050d57806395d89b41146105365761019c565b806370a0823114610426578063715018a614610463578063816c99de1461047a5761019c565b80632097d3fb116101595780633959327c116101335780633959327c1461035a57806342842e0e146103835780634f6ccce7146103ac5780636352211e146103e95761019c565b80632097d3fb146102d857806323b872dd146102f45780632f745c591461031d5761019c565b806301ffc9a7146101a157806306fdde03146101de578063081812fc14610209578063095ea7b3146102465780630c3300fe1461026f57806318160ddd146102ad575b600080fd5b3480156101ad57600080fd5b506101c860048036038101906101c39190612e13565b6106aa565b6040516101d5919061346f565b60405180910390f35b3480156101ea57600080fd5b506101f3610724565b60405161020091906134a5565b60405180910390f35b34801561021557600080fd5b50610230600480360381019061022b9190612eb6565b6107b6565b60405161023d91906133e6565b60405180910390f35b34801561025257600080fd5b5061026d60048036038101906102689190612dd3565b61083b565b005b34801561027b57600080fd5b5061029660048036038101906102919190612eb6565b610953565b6040516102a49291906137ab565b60405180910390f35b3480156102b957600080fd5b506102c2610991565b6040516102cf9190613767565b60405180910390f35b6102f260048036038101906102ed9190612d93565b61099e565b005b34801561030057600080fd5b5061031b60048036038101906103169190612cbd565b610b3f565b005b34801561032957600080fd5b50610344600480360381019061033f9190612dd3565b610c81565b6040516103519190613767565b60405180910390f35b34801561036657600080fd5b50610381600480360381019061037c9190612dd3565b610d26565b005b34801561038f57600080fd5b506103aa60048036038101906103a59190612cbd565b610e30565b005b3480156103b857600080fd5b506103d360048036038101906103ce9190612eb6565b610e50565b6040516103e09190613767565b60405180910390f35b3480156103f557600080fd5b50610410600480360381019061040b9190612eb6565b610ec1565b60405161041d91906133e6565b60405180910390f35b34801561043257600080fd5b5061044d60048036038101906104489190612c23565b610f73565b60405161045a9190613767565b60405180910390f35b34801561046f57600080fd5b5061047861102b565b005b34801561048657600080fd5b506104a1600480360381019061049c9190612eb6565b6110b3565b6040516104ae919061344d565b60405180910390f35b3480156104c357600080fd5b506104cc611154565b6040516104d991906133e6565b60405180910390f35b3480156104ee57600080fd5b506104f761117e565b604051610504919061348a565b60405180910390f35b34801561051957600080fd5b50610534600480360381019061052f9190612ee3565b6111a2565b005b34801561054257600080fd5b5061054b6114cf565b60405161055891906134a5565b60405180910390f35b34801561056d57600080fd5b5061058860048036038101906105839190612c23565b611561565b005b34801561059657600080fd5b506105b160048036038101906105ac9190612d93565b611636565b005b3480156105bf57600080fd5b506105da60048036038101906105d59190612d10565b6117b7565b005b3480156105e857600080fd5b5061060360048036038101906105fe9190612eb6565b611819565b60405161061091906134a5565b60405180910390f35b34801561062557600080fd5b50610640600480360381019061063b9190612c7d565b6118d2565b60405161064d919061346f565b60405180910390f35b34801561066257600080fd5b5061067d60048036038101906106789190612c23565b611966565b005b34801561068b57600080fd5b50610694611a5e565b6040516106a191906133e6565b60405180910390f35b60007f780e9d63000000000000000000000000000000000000000000000000000000007bffffffffffffffffffffffffffffffffffffffffffffffffffffffff1916827bffffffffffffffffffffffffffffffffffffffffffffffffffffffff1916148061071d575061071c82611a84565b5b9050919050565b60606000805461073390613aa2565b80601f016020809104026020016040519081016040528092919081815260200182805461075f90613aa2565b80156107ac5780601f10610781576101008083540402835291602001916107ac565b820191906000526020600020905b81548152906001019060200180831161078f57829003601f168201915b5050505050905090565b60006107c182611b66565b610800576040517f08c379a00000000000000000000000000000000000000000000000000000000081526004016107f790613627565b60405180910390fd5b6004600083815260200190815260200160002060009054906101000a900473ffffffffffffffffffffffffffffffffffffffff169050919050565b600061084682610ec1565b90508073ffffffffffffffffffffffffffffffffffffffff168373ffffffffffffffffffffffffffffffffffffffff1614156108b7576040517f08c379a00000000000000000000000000000000000000000000000000000000081526004016108ae906136a7565b60405180910390fd5b8073ffffffffffffffffffffffffffffffffffffffff166108d6611bd2565b73ffffffffffffffffffffffffffffffffffffffff1614806109055750610904816108ff611bd2565b6118d2565b5b610944576040517f08c379a000000000000000000000000000000000000000000000000000000000815260040161093b906135a7565b60405180910390fd5b61094e8383611bda565b505050565b600d6020528060005260406000206000915090508060000160009054906101000a900460ff16908060000160019054906101000a900460ff16905082565b6000600880549050905090565b6109cc82600c600081546109b190613b05565b91905081905560405180602001604052806000815250611c93565b60006109f97f616e696d616c00000000000000000000000000000000000000000000000000006065611cee565b60ff1690506001600d6000600c54815260200190815260200160002060000160006101000a81548160ff021916908360ff1602179055508115610ac457600b60009054906101000a900473ffffffffffffffffffffffffffffffffffffffff1673ffffffffffffffffffffffffffffffffffffffff16636a627842846040518263ffffffff1660e01b8152600401610a9191906133e6565b600060405180830381600087803b158015610aab57600080fd5b505af1158015610abf573d6000803e3d6000fd5b505050505b600e6000600c548152602001908152602001600020839080600181540180825580915050600190039060005260206000200160009091909190916101000a81548173ffffffffffffffffffffffffffffffffffffffff021916908373ffffffffffffffffffffffffffffffffffffffff160217905550505050565b610b4a838383611d61565b6004600e6000838152602001908152602001600020805490501015610c7c57600e6000828152602001908152602001600020829080600181540180825580915050600190039060005260206000200160009091909190916101000a81548173ffffffffffffffffffffffffffffffffffffffff021916908373ffffffffffffffffffffffffffffffffffffffff1602179055506004600e6000838152602001908152602001600020805490501415610c7b5760006001610c2b7f6d6f6f6400000000000000000000000000000000000000000000000000000000600a611cee565b610c359190613922565b905060068160ff1611610c485780610c4b565b60015b600d600084815260200190815260200160002060000160016101000a81548160ff021916908360ff160217905550505b5b505050565b6000610c8c83610f73565b8210610ccd576040517f08c379a0000000000000000000000000000000000000000000000000000000008152600401610cc4906134c7565b60405180910390fd5b600660008473ffffffffffffffffffffffffffffffffffffffff1673ffffffffffffffffffffffffffffffffffffffff168152602001908152602001600020600083815260200190815260200160002054905092915050565b610d2e611bd2565b73ffffffffffffffffffffffffffffffffffffffff16610d4c611154565b73ffffffffffffffffffffffffffffffffffffffff1614610da2576040517f08c379a0000000000000000000000000000000000000000000000000000000008152600401610d9990613647565b60405180910390fd5b47811115610de5576040517f08c379a0000000000000000000000000000000000000000000000000000000008152600401610ddc90613667565b60405180910390fd5b8173ffffffffffffffffffffffffffffffffffffffff166108fc829081150290604051600060405180830381858888f19350505050158015610e2b573d6000803e3d6000fd5b505050565b610e4b838383604051806020016040528060008152506117b7565b505050565b6000610e5a610991565b8210610e9b576040517f08c379a0000000000000000000000000000000000000000000000000000000008152600401610e9290613707565b60405180910390fd5b60088281548110610eaf57610eae613c73565b5b90600052602060002001549050919050565b6000806002600084815260200190815260200160002060009054906101000a900473ffffffffffffffffffffffffffffffffffffffff169050600073ffffffffffffffffffffffffffffffffffffffff168173ffffffffffffffffffffffffffffffffffffffff161415610f6a576040517f08c379a0000000000000000000000000000000000000000000000000000000008152600401610f61906135e7565b60405180910390fd5b80915050919050565b60008073ffffffffffffffffffffffffffffffffffffffff168273ffffffffffffffffffffffffffffffffffffffff161415610fe4576040517f08c379a0000000000000000000000000000000000000000000000000000000008152600401610fdb906135c7565b60405180910390fd5b600360008373ffffffffffffffffffffffffffffffffffffffff1673ffffffffffffffffffffffffffffffffffffffff168152602001908152602001600020549050919050565b611033611bd2565b73ffffffffffffffffffffffffffffffffffffffff16611051611154565b73ffffffffffffffffffffffffffffffffffffffff16146110a7576040517f08c379a000000000000000000000000000000000000000000000000000000000815260040161109e90613647565b60405180910390fd5b6110b16000611dc1565b565b6060600e600083815260200190815260200160002080548060200260200160405190810160405280929190818152602001828054801561114857602002820191906000526020600020905b8160009054906101000a900473ffffffffffffffffffffffffffffffffffffffff1673ffffffffffffffffffffffffffffffffffffffff16815260200190600101908083116110fe575b50505050509050919050565b6000600a60009054906101000a900473ffffffffffffffffffffffffffffffffffffffff16905090565b7f000000000000000000000000000000000000000000000000000000000000000081565b6111ac3383611e87565b6111eb576040517f08c379a00000000000000000000000000000000000000000000000000000000081526004016111e2906136c7565b60405180910390fd5b600b60009054906101000a900473ffffffffffffffffffffffffffffffffffffffff1673ffffffffffffffffffffffffffffffffffffffff1663081812fc826040518263ffffffff1660e01b81526004016112469190613767565b60206040518083038186803b15801561125e57600080fd5b505afa158015611272573d6000803e3d6000fd5b505050506040513d601f19601f820116820180604052508101906112969190612c50565b73ffffffffffffffffffffffffffffffffffffffff163373ffffffffffffffffffffffffffffffffffffffff1614806113a45750600b60009054906101000a900473ffffffffffffffffffffffffffffffffffffffff1673ffffffffffffffffffffffffffffffffffffffff16636352211e826040518263ffffffff1660e01b81526004016113259190613767565b60206040518083038186803b15801561133d57600080fd5b505afa158015611351573d6000803e3d6000fd5b505050506040513d601f19601f820116820180604052508101906113759190612c50565b73ffffffffffffffffffffffffffffffffffffffff163373ffffffffffffffffffffffffffffffffffffffff16145b6113e3576040517f08c379a00000000000000000000000000000000000000000000000000000000081526004016113da90613747565b60405180910390fd5b600b60009054906101000a900473ffffffffffffffffffffffffffffffffffffffff1673ffffffffffffffffffffffffffffffffffffffff166342966c68826040518263ffffffff1660e01b815260040161143e9190613767565b600060405180830381600087803b15801561145857600080fd5b505af115801561146c573d6000803e3d6000fd5b50505050606080600e60008581526020019081526020016000209080519060200190611499929190612a1e565b506000600d600085815260200190815260200160002060000160016101000a81548160ff021916908360ff160217905550505050565b6060600180546114de90613aa2565b80601f016020809104026020016040519081016040528092919081815260200182805461150a90613aa2565b80156115575780601f1061152c57610100808354040283529160200191611557565b820191906000526020600020905b81548152906001019060200180831161153a57829003601f168201915b5050505050905090565b600073ffffffffffffffffffffffffffffffffffffffff16600b60009054906101000a900473ffffffffffffffffffffffffffffffffffffffff1673ffffffffffffffffffffffffffffffffffffffff16146115f2576040517f08c379a00000000000000000000000000000000000000000000000000000000081526004016115e990613727565b60405180910390fd5b80600b60006101000a81548173ffffffffffffffffffffffffffffffffffffffff021916908373ffffffffffffffffffffffffffffffffffffffff16021790555050565b61163e611bd2565b73ffffffffffffffffffffffffffffffffffffffff168273ffffffffffffffffffffffffffffffffffffffff1614156116ac576040517f08c379a00000000000000000000000000000000000000000000000000000000081526004016116a390613567565b60405180910390fd5b80600560006116b9611bd2565b73ffffffffffffffffffffffffffffffffffffffff1673ffffffffffffffffffffffffffffffffffffffff16815260200190815260200160002060008473ffffffffffffffffffffffffffffffffffffffff1673ffffffffffffffffffffffffffffffffffffffff16815260200190815260200160002060006101000a81548160ff0219169083151502179055508173ffffffffffffffffffffffffffffffffffffffff16611766611bd2565b73ffffffffffffffffffffffffffffffffffffffff167f17307eab39ab6107e8899845ad3d59bd9653f200f220920489ca2b5937696c31836040516117ab919061346f565b60405180910390a35050565b6117c86117c2611bd2565b83611e87565b611807576040517f08c379a00000000000000000000000000000000000000000000000000000000081526004016117fe906136e7565b60405180910390fd5b61181384848484611f65565b50505050565b60607f000000000000000000000000000000000000000000000000000000000000000073ffffffffffffffffffffffffffffffffffffffff16638c4c1b2f83306040518363ffffffff1660e01b8152600401611876929190613782565b60006040518083038186803b15801561188e57600080fd5b505afa1580156118a2573d6000803e3d6000fd5b505050506040513d6000823e3d601f19601f820116820180604052508101906118cb9190612e6d565b9050919050565b6000600560008473ffffffffffffffffffffffffffffffffffffffff1673ffffffffffffffffffffffffffffffffffffffff16815260200190815260200160002060008373ffffffffffffffffffffffffffffffffffffffff1673ffffffffffffffffffffffffffffffffffffffff16815260200190815260200160002060009054906101000a900460ff16905092915050565b61196e611bd2565b73ffffffffffffffffffffffffffffffffffffffff1661198c611154565b73ffffffffffffffffffffffffffffffffffffffff16146119e2576040517f08c379a00000000000000000000000000000000000000000000000000000000081526004016119d990613647565b60405180910390fd5b600073ffffffffffffffffffffffffffffffffffffffff168173ffffffffffffffffffffffffffffffffffffffff161415611a52576040517f08c379a0000000000000000000000000000000000000000000000000000000008152600401611a4990613507565b60405180910390fd5b611a5b81611dc1565b50565b600b60009054906101000a900473ffffffffffffffffffffffffffffffffffffffff1681565b60007f80ac58cd000000000000000000000000000000000000000000000000000000007bffffffffffffffffffffffffffffffffffffffffffffffffffffffff1916827bffffffffffffffffffffffffffffffffffffffffffffffffffffffff19161480611b4f57507f5b5e139f000000000000000000000000000000000000000000000000000000007bffffffffffffffffffffffffffffffffffffffffffffffffffffffff1916827bffffffffffffffffffffffffffffffffffffffffffffffffffffffff1916145b80611b5f5750611b5e82611fc1565b5b9050919050565b60008073ffffffffffffffffffffffffffffffffffffffff166002600084815260200190815260200160002060009054906101000a900473ffffffffffffffffffffffffffffffffffffffff1673ffffffffffffffffffffffffffffffffffffffff1614159050919050565b600033905090565b816004600083815260200190815260200160002060006101000a81548173ffffffffffffffffffffffffffffffffffffffff021916908373ffffffffffffffffffffffffffffffffffffffff160217905550808273ffffffffffffffffffffffffffffffffffffffff16611c4d83610ec1565b73ffffffffffffffffffffffffffffffffffffffff167f8c5be1e5ebec7d5bd14f71427d1e84f3dd0314c0f7b2291e5b200ac8c7c3b92560405160405180910390a45050565b611c9d838361202b565b611caa60008484846121f9565b611ce9576040517f08c379a0000000000000000000000000000000000000000000000000000000008152600401611ce0906134e7565b60405180910390fd5b505050565b6000808260ff161415611d045760009050611d5b565b8142600c543386604051602001611d1e9493929190613398565b60405160208183030381529060405280519060200120600060208110611d4757611d46613c73565b5b1a60f81b60f81c611d589190613b86565b90505b92915050565b611d72611d6c611bd2565b82611e87565b611db1576040517f08c379a0000000000000000000000000000000000000000000000000000000008152600401611da8906136e7565b60405180910390fd5b611dbc838383612390565b505050565b6000600a60009054906101000a900473ffffffffffffffffffffffffffffffffffffffff16905081600a60006101000a81548173ffffffffffffffffffffffffffffffffffffffff021916908373ffffffffffffffffffffffffffffffffffffffff1602179055508173ffffffffffffffffffffffffffffffffffffffff168173ffffffffffffffffffffffffffffffffffffffff167f8be0079c531659141344cd1fd0a4f28419497f9722a3daafe3b4186f6b6457e060405160405180910390a35050565b6000611e9282611b66565b611ed1576040517f08c379a0000000000000000000000000000000000000000000000000000000008152600401611ec890613587565b60405180910390fd5b6000611edc83610ec1565b90508073ffffffffffffffffffffffffffffffffffffffff168473ffffffffffffffffffffffffffffffffffffffff161480611f4b57508373ffffffffffffffffffffffffffffffffffffffff16611f33846107b6565b73ffffffffffffffffffffffffffffffffffffffff16145b80611f5c5750611f5b81856118d2565b5b91505092915050565b611f70848484612390565b611f7c848484846121f9565b611fbb576040517f08c379a0000000000000000000000000000000000000000000000000000000008152600401611fb2906134e7565b60405180910390fd5b50505050565b60007f01ffc9a7000000000000000000000000000000000000000000000000000000007bffffffffffffffffffffffffffffffffffffffffffffffffffffffff1916827bffffffffffffffffffffffffffffffffffffffffffffffffffffffff1916149050919050565b600073ffffffffffffffffffffffffffffffffffffffff168273ffffffffffffffffffffffffffffffffffffffff16141561209b576040517f08c379a000000000000000000000000000000000000000000000000000000000815260040161209290613607565b60405180910390fd5b6120a481611b66565b156120e4576040517f08c379a00000000000000000000000000000000000000000000000000000000081526004016120db90613527565b60405180910390fd5b6120f0600083836125ec565b6001600360008473ffffffffffffffffffffffffffffffffffffffff1673ffffffffffffffffffffffffffffffffffffffff168152602001908152602001600020600082825461214091906138cc565b92505081905550816002600083815260200190815260200160002060006101000a81548173ffffffffffffffffffffffffffffffffffffffff021916908373ffffffffffffffffffffffffffffffffffffffff160217905550808273ffffffffffffffffffffffffffffffffffffffff16600073ffffffffffffffffffffffffffffffffffffffff167fddf252ad1be2c89b69c2b068fc378daa952ba7f163c4a11628f55a4df523b3ef60405160405180910390a45050565b600061221a8473ffffffffffffffffffffffffffffffffffffffff16612700565b15612383578373ffffffffffffffffffffffffffffffffffffffff1663150b7a02612243611bd2565b8786866040518563ffffffff1660e01b81526004016122659493929190613401565b602060405180830381600087803b15801561227f57600080fd5b505af19250505080156122b057506040513d601f19601f820116820180604052508101906122ad9190612e40565b60015b612333573d80600081146122e0576040519150601f19603f3d011682016040523d82523d6000602084013e6122e5565b606091505b5060008151141561232b576040517f08c379a0000000000000000000000000000000000000000000000000000000008152600401612322906134e7565b60405180910390fd5b805181602001fd5b63150b7a0260e01b7bffffffffffffffffffffffffffffffffffffffffffffffffffffffff1916817bffffffffffffffffffffffffffffffffffffffffffffffffffffffff191614915050612388565b600190505b949350505050565b8273ffffffffffffffffffffffffffffffffffffffff166123b082610ec1565b73ffffffffffffffffffffffffffffffffffffffff1614612406576040517f08c379a00000000000000000000000000000000000000000000000000000000081526004016123fd90613687565b60405180910390fd5b600073ffffffffffffffffffffffffffffffffffffffff168273ffffffffffffffffffffffffffffffffffffffff161415612476576040517f08c379a000000000000000000000000000000000000000000000000000000000815260040161246d90613547565b60405180910390fd5b6124818383836125ec565b61248c600082611bda565b6001600360008573ffffffffffffffffffffffffffffffffffffffff1673ffffffffffffffffffffffffffffffffffffffff16815260200190815260200160002060008282546124dc9190613959565b925050819055506001600360008473ffffffffffffffffffffffffffffffffffffffff1673ffffffffffffffffffffffffffffffffffffffff168152602001908152602001600020600082825461253391906138cc565b92505081905550816002600083815260200190815260200160002060006101000a81548173ffffffffffffffffffffffffffffffffffffffff021916908373ffffffffffffffffffffffffffffffffffffffff160217905550808273ffffffffffffffffffffffffffffffffffffffff168473ffffffffffffffffffffffffffffffffffffffff167fddf252ad1be2c89b69c2b068fc378daa952ba7f163c4a11628f55a4df523b3ef60405160405180910390a4505050565b6125f7838383612713565b600073ffffffffffffffffffffffffffffffffffffffff168373ffffffffffffffffffffffffffffffffffffffff16141561263a5761263581612718565b612679565b8173ffffffffffffffffffffffffffffffffffffffff168373ffffffffffffffffffffffffffffffffffffffff1614612678576126778382612761565b5b5b600073ffffffffffffffffffffffffffffffffffffffff168273ffffffffffffffffffffffffffffffffffffffff1614156126bc576126b7816128ce565b6126fb565b8273ffffffffffffffffffffffffffffffffffffffff168273ffffffffffffffffffffffffffffffffffffffff16146126fa576126f9828261299f565b5b5b505050565b600080823b905060008111915050919050565b505050565b6008805490506009600083815260200190815260200160002081905550600881908060018154018082558091505060019003906000526020600020016000909190919091505550565b6000600161276e84610f73565b6127789190613959565b905060006007600084815260200190815260200160002054905081811461285d576000600660008673ffffffffffffffffffffffffffffffffffffffff1673ffffffffffffffffffffffffffffffffffffffff168152602001908152602001600020600084815260200190815260200160002054905080600660008773ffffffffffffffffffffffffffffffffffffffff1673ffffffffffffffffffffffffffffffffffffffff168152602001908152602001600020600084815260200190815260200160002081905550816007600083815260200190815260200160002081905550505b6007600084815260200190815260200160002060009055600660008573ffffffffffffffffffffffffffffffffffffffff1673ffffffffffffffffffffffffffffffffffffffff16815260200190815260200160002060008381526020019081526020016000206000905550505050565b600060016008805490506128e29190613959565b905060006009600084815260200190815260200160002054905060006008838154811061291257612911613c73565b5b90600052602060002001549050806008838154811061293457612933613c73565b5b90600052602060002001819055508160096000838152602001908152602001600020819055506009600085815260200190815260200160002060009055600880548061298357612982613c44565b5b6001900381819060005260206000200160009055905550505050565b60006129aa83610f73565b905081600660008573ffffffffffffffffffffffffffffffffffffffff1673ffffffffffffffffffffffffffffffffffffffff168152602001908152602001600020600083815260200190815260200160002081905550806007600084815260200190815260200160002081905550505050565b828054828255906000526020600020908101928215612a97579160200282015b82811115612a965782518260006101000a81548173ffffffffffffffffffffffffffffffffffffffff021916908373ffffffffffffffffffffffffffffffffffffffff16021790555091602001919060010190612a3e565b5b509050612aa49190612aa8565b5090565b5b80821115612ac1576000816000905550600101612aa9565b5090565b6000612ad8612ad3846137f9565b6137d4565b905082815260208101848484011115612af457612af3613cd6565b5b612aff848285613a60565b509392505050565b6000612b1a612b158461382a565b6137d4565b905082815260208101848484011115612b3657612b35613cd6565b5b612b41848285613a6f565b509392505050565b600081359050612b5881614274565b92915050565b600081519050612b6d81614274565b92915050565b600081359050612b828161428b565b92915050565b600081359050612b97816142a2565b92915050565b600081519050612bac816142a2565b92915050565b600082601f830112612bc757612bc6613cd1565b5b8135612bd7848260208601612ac5565b91505092915050565b600082601f830112612bf557612bf4613cd1565b5b8151612c05848260208601612b07565b91505092915050565b600081359050612c1d816142b9565b92915050565b600060208284031215612c3957612c38613ce0565b5b6000612c4784828501612b49565b91505092915050565b600060208284031215612c6657612c65613ce0565b5b6000612c7484828501612b5e565b91505092915050565b60008060408385031215612c9457612c93613ce0565b5b6000612ca285828601612b49565b9250506020612cb385828601612b49565b9150509250929050565b600080600060608486031215612cd657612cd5613ce0565b5b6000612ce486828701612b49565b9350506020612cf586828701612b49565b9250506040612d0686828701612c0e565b9150509250925092565b60008060008060808587031215612d2a57612d29613ce0565b5b6000612d3887828801612b49565b9450506020612d4987828801612b49565b9350506040612d5a87828801612c0e565b925050606085013567ffffffffffffffff811115612d7b57612d7a613cdb565b5b612d8787828801612bb2565b91505092959194509250565b60008060408385031215612daa57612da9613ce0565b5b6000612db885828601612b49565b9250506020612dc985828601612b73565b9150509250929050565b60008060408385031215612dea57612de9613ce0565b5b6000612df885828601612b49565b9250506020612e0985828601612c0e565b9150509250929050565b600060208284031215612e2957612e28613ce0565b5b6000612e3784828501612b88565b91505092915050565b600060208284031215612e5657612e55613ce0565b5b6000612e6484828501612b9d565b91505092915050565b600060208284031215612e8357612e82613ce0565b5b600082015167ffffffffffffffff811115612ea157612ea0613cdb565b5b612ead84828501612be0565b91505092915050565b600060208284031215612ecc57612ecb613ce0565b5b6000612eda84828501612c0e565b91505092915050565b60008060408385031215612efa57612ef9613ce0565b5b6000612f0885828601612c0e565b9250506020612f1985828601612c0e565b9150509250929050565b6000612f2f8383612f3b565b60208301905092915050565b612f448161398d565b82525050565b612f538161398d565b82525050565b612f6a612f658261398d565b613b4e565b82525050565b6000612f7b8261386b565b612f858185613899565b9350612f908361385b565b8060005b83811015612fc1578151612fa88882612f23565b9750612fb38361388c565b925050600181019050612f94565b5085935050505092915050565b612fd78161399f565b82525050565b612fee612fe9826139ab565b613b60565b82525050565b6000612fff82613876565b61300981856138aa565b9350613019818560208601613a6f565b61302281613ce5565b840191505092915050565b61303681613a18565b82525050565b61304581613a3c565b82525050565b600061305682613881565b61306081856138bb565b9350613070818560208601613a6f565b61307981613ce5565b840191505092915050565b6000613091602b836138bb565b915061309c82613d03565b604082019050919050565b60006130b46032836138bb565b91506130bf82613d52565b604082019050919050565b60006130d76026836138bb565b91506130e282613da1565b604082019050919050565b60006130fa601c836138bb565b915061310582613df0565b602082019050919050565b600061311d6024836138bb565b915061312882613e19565b604082019050919050565b60006131406019836138bb565b915061314b82613e68565b602082019050919050565b6000613163602c836138bb565b915061316e82613e91565b604082019050919050565b60006131866038836138bb565b915061319182613ee0565b604082019050919050565b60006131a9602a836138bb565b91506131b482613f2f565b604082019050919050565b60006131cc6029836138bb565b91506131d782613f7e565b604082019050919050565b60006131ef6020836138bb565b91506131fa82613fcd565b602082019050919050565b6000613212602c836138bb565b915061321d82613ff6565b604082019050919050565b60006132356020836138bb565b915061324082614045565b602082019050919050565b6000613258600f836138bb565b91506132638261406e565b602082019050919050565b600061327b6029836138bb565b915061328682614097565b604082019050919050565b600061329e6021836138bb565b91506132a9826140e6565b604082019050919050565b60006132c16020836138bb565b91506132cc82614135565b602082019050919050565b60006132e46031836138bb565b91506132ef8261415e565b604082019050919050565b6000613307602c836138bb565b9150613312826141ad565b604082019050919050565b600061332a6003836138bb565b9150613335826141fc565b602082019050919050565b600061334d602d836138bb565b915061335882614225565b604082019050919050565b61336c81613a01565b82525050565b61338361337e82613a01565b613b7c565b82525050565b61339281613a0b565b82525050565b60006133a48287613372565b6020820191506133b48286613372565b6020820191506133c48285612f59565b6014820191506133d48284612fdd565b60208201915081905095945050505050565b60006020820190506133fb6000830184612f4a565b92915050565b60006080820190506134166000830187612f4a565b6134236020830186612f4a565b6134306040830185613363565b81810360608301526134428184612ff4565b905095945050505050565b600060208201905081810360008301526134678184612f70565b905092915050565b60006020820190506134846000830184612fce565b92915050565b600060208201905061349f600083018461302d565b92915050565b600060208201905081810360008301526134bf818461304b565b905092915050565b600060208201905081810360008301526134e081613084565b9050919050565b60006020820190508181036000830152613500816130a7565b9050919050565b60006020820190508181036000830152613520816130ca565b9050919050565b60006020820190508181036000830152613540816130ed565b9050919050565b6000602082019050818103600083015261356081613110565b9050919050565b6000602082019050818103600083015261358081613133565b9050919050565b600060208201905081810360008301526135a081613156565b9050919050565b600060208201905081810360008301526135c081613179565b9050919050565b600060208201905081810360008301526135e08161319c565b9050919050565b60006020820190508181036000830152613600816131bf565b9050919050565b60006020820190508181036000830152613620816131e2565b9050919050565b6000602082019050818103600083015261364081613205565b9050919050565b6000602082019050818103600083015261366081613228565b9050919050565b600060208201905081810360008301526136808161324b565b9050919050565b600060208201905081810360008301526136a08161326e565b9050919050565b600060208201905081810360008301526136c081613291565b9050919050565b600060208201905081810360008301526136e0816132b4565b9050919050565b60006020820190508181036000830152613700816132d7565b9050919050565b60006020820190508181036000830152613720816132fa565b9050919050565b600060208201905081810360008301526137408161331d565b9050919050565b6000602082019050818103600083015261376081613340565b9050919050565b600060208201905061377c6000830184613363565b92915050565b60006040820190506137976000830185613363565b6137a4602083018461303c565b9392505050565b60006040820190506137c06000830185613389565b6137cd6020830184613389565b9392505050565b60006137de6137ef565b90506137ea8282613ad4565b919050565b6000604051905090565b600067ffffffffffffffff82111561381457613813613ca2565b5b61381d82613ce5565b9050602081019050919050565b600067ffffffffffffffff82111561384557613844613ca2565b5b61384e82613ce5565b9050602081019050919050565b6000819050602082019050919050565b600081519050919050565b600081519050919050565b600081519050919050565b6000602082019050919050565b600082825260208201905092915050565b600082825260208201905092915050565b600082825260208201905092915050565b60006138d782613a01565b91506138e283613a01565b9250827fffffffffffffffffffffffffffffffffffffffffffffffffffffffffffffffff0382111561391757613916613bb7565b5b828201905092915050565b600061392d82613a0b565b915061393883613a0b565b92508260ff0382111561394e5761394d613bb7565b5b828201905092915050565b600061396482613a01565b915061396f83613a01565b92508282101561398257613981613bb7565b5b828203905092915050565b6000613998826139e1565b9050919050565b60008115159050919050565b6000819050919050565b60007fffffffff0000000000000000000000000000000000000000000000000000000082169050919050565b600073ffffffffffffffffffffffffffffffffffffffff82169050919050565b6000819050919050565b600060ff82169050919050565b6000613a2382613a2a565b9050919050565b6000613a35826139e1565b9050919050565b6000613a4782613a4e565b9050919050565b6000613a59826139e1565b9050919050565b82818337600083830152505050565b60005b83811015613a8d578082015181840152602081019050613a72565b83811115613a9c576000848401525b50505050565b60006002820490506001821680613aba57607f821691505b60208210811415613ace57613acd613c15565b5b50919050565b613add82613ce5565b810181811067ffffffffffffffff82111715613afc57613afb613ca2565b5b80604052505050565b6000613b1082613a01565b91507fffffffffffffffffffffffffffffffffffffffffffffffffffffffffffffffff821415613b4357613b42613bb7565b5b600182019050919050565b6000613b5982613b6a565b9050919050565b6000819050919050565b6000613b7582613cf6565b9050919050565b6000819050919050565b6000613b9182613a0b565b9150613b9c83613a0b565b925082613bac57613bab613be6565b5b828206905092915050565b7f4e487b7100000000000000000000000000000000000000000000000000000000600052601160045260246000fd5b7f4e487b7100000000000000000000000000000000000000000000000000000000600052601260045260246000fd5b7f4e487b7100000000000000000000000000000000000000000000000000000000600052602260045260246000fd5b7f4e487b7100000000000000000000000000000000000000000000000000000000600052603160045260246000fd5b7f4e487b7100000000000000000000000000000000000000000000000000000000600052603260045260246000fd5b7f4e487b7100000000000000000000000000000000000000000000000000000000600052604160045260246000fd5b600080fd5b600080fd5b600080fd5b600080fd5b6000601f19601f8301169050919050565b60008160601b9050919050565b7f455243373231456e756d657261626c653a206f776e657220696e646578206f7560008201527f74206f6620626f756e6473000000000000000000000000000000000000000000602082015250565b7f4552433732313a207472616e7366657220746f206e6f6e20455243373231526560008201527f63656976657220696d706c656d656e7465720000000000000000000000000000602082015250565b7f4f776e61626c653a206e6577206f776e657220697320746865207a65726f206160008201527f6464726573730000000000000000000000000000000000000000000000000000602082015250565b7f4552433732313a20746f6b656e20616c7265616479206d696e74656400000000600082015250565b7f4552433732313a207472616e7366657220746f20746865207a65726f2061646460008201527f7265737300000000000000000000000000000000000000000000000000000000602082015250565b7f4552433732313a20617070726f766520746f2063616c6c657200000000000000600082015250565b7f4552433732313a206f70657261746f7220717565727920666f72206e6f6e657860008201527f697374656e7420746f6b656e0000000000000000000000000000000000000000602082015250565b7f4552433732313a20617070726f76652063616c6c6572206973206e6f74206f7760008201527f6e6572206e6f7220617070726f76656420666f7220616c6c0000000000000000602082015250565b7f4552433732313a2062616c616e636520717565727920666f7220746865207a6560008201527f726f206164647265737300000000000000000000000000000000000000000000602082015250565b7f4552433732313a206f776e657220717565727920666f72206e6f6e657869737460008201527f656e7420746f6b656e0000000000000000000000000000000000000000000000602082015250565b7f4552433732313a206d696e7420746f20746865207a65726f2061646472657373600082015250565b7f4552433732313a20617070726f76656420717565727920666f72206e6f6e657860008201527f697374656e7420746f6b656e0000000000000000000000000000000000000000602082015250565b7f4f776e61626c653a2063616c6c6572206973206e6f7420746865206f776e6572600082015250565b7f616d6f756e7420746f6f20686967680000000000000000000000000000000000600082015250565b7f4552433732313a207472616e73666572206f6620746f6b656e2074686174206960008201527f73206e6f74206f776e0000000000000000000000000000000000000000000000602082015250565b7f4552433732313a20617070726f76616c20746f2063757272656e74206f776e6560008201527f7200000000000000000000000000000000000000000000000000000000000000602082015250565b7f43616c6c6572206973206e6f74206f776e6572206e6f7220617070726f766564600082015250565b7f4552433732313a207472616e736665722063616c6c6572206973206e6f74206f60008201527f776e6572206e6f7220617070726f766564000000000000000000000000000000602082015250565b7f455243373231456e756d657261626c653a20676c6f62616c20696e646578206f60008201527f7574206f6620626f756e64730000000000000000000000000000000000000000602082015250565b7f7365740000000000000000000000000000000000000000000000000000000000600082015250565b7f43616c6c6572206d75737420626520617070726f766564206f72206f776e657260008201527f20666f7220746f6b656e20696400000000000000000000000000000000000000602082015250565b61427d8161398d565b811461428857600080fd5b50565b6142948161399f565b811461429f57600080fd5b50565b6142ab816139b5565b81146142b657600080fd5b50565b6142c281613a01565b81146142cd57600080fd5b5056fea2646970667358221220f48422ee28a3dd0626a1493c71d78a1316fd79d33ee694ab76a4f12e9bed5f3364736f6c63430008060033",
    "linkReferences": {},
    "deployedLinkReferences": {}
}