{
  "_format": "hh-sol-artifact-1",
  "contractName": "TransferArt",
  "sourceName": "contracts/TransferArt.sol",
  "abi": [
    {
      "inputs": [
        {
          "internalType": "address",
          "name": "_manager",
          "type": "address"
        }
      ],
      "stateMutability": "nonpayable",
      "type": "constructor"
    },
    {
      "anonymous": false,
      "inputs": [
        {
          "indexed": true,
          "internalType": "address",
          "name": "owner",
          "type": "address"
        },
        {
          "indexed": true,
          "internalType": "address",
          "name": "approved",
          "type": "address"
        },
        {
          "indexed": true,
          "internalType": "uint256",
          "name": "tokenId",
          "type": "uint256"
        }
      ],
      "name": "Approval",
      "type": "event"
    },
    {
      "anonymous": false,
      "inputs": [
        {
          "indexed": true,
          "internalType": "address",
          "name": "owner",
          "type": "address"
        },
        {
          "indexed": true,
          "internalType": "address",
          "name": "operator",
          "type": "address"
        },
        {
          "indexed": false,
          "internalType": "bool",
          "name": "approved",
          "type": "bool"
        }
      ],
      "name": "ApprovalForAll",
      "type": "event"
    },
    {
      "anonymous": false,
      "inputs": [
        {
          "indexed": true,
          "internalType": "address",
          "name": "from",
          "type": "address"
        },
        {
          "indexed": true,
          "internalType": "address",
          "name": "to",
          "type": "address"
        },
        {
          "indexed": true,
          "internalType": "uint256",
          "name": "tokenId",
          "type": "uint256"
        }
      ],
      "name": "Transfer",
      "type": "event"
    },
    {
      "inputs": [
        {
          "internalType": "address",
          "name": "account",
          "type": "address"
        }
      ],
      "name": "addressRgba",
      "outputs": [
        {
          "internalType": "string",
          "name": "",
          "type": "string"
        },
        {
          "internalType": "string",
          "name": "",
          "type": "string"
        },
        {
          "internalType": "string",
          "name": "",
          "type": "string"
        },
        {
          "internalType": "string",
          "name": "",
          "type": "string"
        }
      ],
      "stateMutability": "pure",
      "type": "function"
    },
    {
      "inputs": [
        {
          "internalType": "address",
          "name": "to",
          "type": "address"
        },
        {
          "internalType": "uint256",
          "name": "tokenId",
          "type": "uint256"
        }
      ],
      "name": "approve",
      "outputs": [],
      "stateMutability": "nonpayable",
      "type": "function"
    },
    {
      "inputs": [
        {
          "internalType": "address",
          "name": "owner",
          "type": "address"
        }
      ],
      "name": "balanceOf",
      "outputs": [
        {
          "internalType": "uint256",
          "name": "",
          "type": "uint256"
        }
      ],
      "stateMutability": "view",
      "type": "function"
    },
    {
      "inputs": [
        {
          "internalType": "uint256",
          "name": "",
          "type": "uint256"
        }
      ],
      "name": "copyOf",
      "outputs": [
        {
          "internalType": "uint256",
          "name": "",
          "type": "uint256"
        }
      ],
      "stateMutability": "view",
      "type": "function"
    },
    {
      "inputs": [
        {
          "internalType": "uint256",
          "name": "tokenId",
          "type": "uint256"
        }
      ],
      "name": "getApproved",
      "outputs": [
        {
          "internalType": "address",
          "name": "",
          "type": "address"
        }
      ],
      "stateMutability": "view",
      "type": "function"
    },
    {
      "inputs": [
        {
          "internalType": "address",
          "name": "owner",
          "type": "address"
        },
        {
          "internalType": "address",
          "name": "operator",
          "type": "address"
        }
      ],
      "name": "isApprovedForAll",
      "outputs": [
        {
          "internalType": "bool",
          "name": "",
          "type": "bool"
        }
      ],
      "stateMutability": "view",
      "type": "function"
    },
    {
      "inputs": [],
      "name": "manager",
      "outputs": [
        {
          "internalType": "address",
          "name": "",
          "type": "address"
        }
      ],
      "stateMutability": "view",
      "type": "function"
    },
    {
      "inputs": [],
      "name": "maxOriginals",
      "outputs": [
        {
          "internalType": "uint256",
          "name": "",
          "type": "uint256"
        }
      ],
      "stateMutability": "view",
      "type": "function"
    },
    {
      "inputs": [
        {
          "internalType": "address",
          "name": "mintTo",
          "type": "address"
        }
      ],
      "name": "mint",
      "outputs": [],
      "stateMutability": "payable",
      "type": "function"
    },
    {
      "inputs": [],
      "name": "mintFeeWei",
      "outputs": [
        {
          "internalType": "uint256",
          "name": "",
          "type": "uint256"
        }
      ],
      "stateMutability": "view",
      "type": "function"
    },
    {
      "inputs": [],
      "name": "name",
      "outputs": [
        {
          "internalType": "string",
          "name": "",
          "type": "string"
        }
      ],
      "stateMutability": "view",
      "type": "function"
    },
    {
      "inputs": [],
      "name": "originals",
      "outputs": [
        {
          "internalType": "uint256",
          "name": "",
          "type": "uint256"
        }
      ],
      "stateMutability": "view",
      "type": "function"
    },
    {
      "inputs": [
        {
          "internalType": "uint256",
          "name": "tokenId",
          "type": "uint256"
        }
      ],
      "name": "ownerOf",
      "outputs": [
        {
          "internalType": "address",
          "name": "",
          "type": "address"
        }
      ],
      "stateMutability": "view",
      "type": "function"
    },
    {
      "inputs": [
        {
          "internalType": "uint256",
          "name": "amount",
          "type": "uint256"
        }
      ],
      "name": "payManager",
      "outputs": [],
      "stateMutability": "nonpayable",
      "type": "function"
    },
    {
      "inputs": [
        {
          "internalType": "address",
          "name": "from",
          "type": "address"
        },
        {
          "internalType": "address",
          "name": "to",
          "type": "address"
        },
        {
          "internalType": "uint256",
          "name": "tokenId",
          "type": "uint256"
        }
      ],
      "name": "safeTransferFrom",
      "outputs": [],
      "stateMutability": "nonpayable",
      "type": "function"
    },
    {
      "inputs": [
        {
          "internalType": "address",
          "name": "from",
          "type": "address"
        },
        {
          "internalType": "address",
          "name": "to",
          "type": "address"
        },
        {
          "internalType": "uint256",
          "name": "tokenId",
          "type": "uint256"
        },
        {
          "internalType": "bytes",
          "name": "_data",
          "type": "bytes"
        }
      ],
      "name": "safeTransferFrom",
      "outputs": [],
      "stateMutability": "nonpayable",
      "type": "function"
    },
    {
      "inputs": [
        {
          "internalType": "address",
          "name": "operator",
          "type": "address"
        },
        {
          "internalType": "bool",
          "name": "approved",
          "type": "bool"
        }
      ],
      "name": "setApprovalForAll",
      "outputs": [],
      "stateMutability": "nonpayable",
      "type": "function"
    },
    {
      "inputs": [
        {
          "internalType": "bytes4",
          "name": "interfaceId",
          "type": "bytes4"
        }
      ],
      "name": "supportsInterface",
      "outputs": [
        {
          "internalType": "bool",
          "name": "",
          "type": "bool"
        }
      ],
      "stateMutability": "view",
      "type": "function"
    },
    {
      "inputs": [],
      "name": "symbol",
      "outputs": [
        {
          "internalType": "string",
          "name": "",
          "type": "string"
        }
      ],
      "stateMutability": "view",
      "type": "function"
    },
    {
      "inputs": [
        {
          "internalType": "uint256",
          "name": "index",
          "type": "uint256"
        }
      ],
      "name": "tokenByIndex",
      "outputs": [
        {
          "internalType": "uint256",
          "name": "",
          "type": "uint256"
        }
      ],
      "stateMutability": "view",
      "type": "function"
    },
    {
      "inputs": [
        {
          "internalType": "address",
          "name": "owner",
          "type": "address"
        },
        {
          "internalType": "uint256",
          "name": "index",
          "type": "uint256"
        }
      ],
      "name": "tokenOfOwnerByIndex",
      "outputs": [
        {
          "internalType": "uint256",
          "name": "",
          "type": "uint256"
        }
      ],
      "stateMutability": "view",
      "type": "function"
    },
    {
      "inputs": [
        {
          "internalType": "uint256",
          "name": "tokenId",
          "type": "uint256"
        }
      ],
      "name": "tokenURI",
      "outputs": [
        {
          "internalType": "string",
          "name": "",
          "type": "string"
        }
      ],
      "stateMutability": "view",
      "type": "function"
    },
    {
      "inputs": [],
      "name": "totalSupply",
      "outputs": [
        {
          "internalType": "uint256",
          "name": "",
          "type": "uint256"
        }
      ],
      "stateMutability": "view",
      "type": "function"
    },
    {
      "inputs": [
        {
          "internalType": "address",
          "name": "from",
          "type": "address"
        },
        {
          "internalType": "address",
          "name": "to",
          "type": "address"
        },
        {
          "internalType": "uint256",
          "name": "tokenId",
          "type": "uint256"
        }
      ],
      "name": "transferFrom",
      "outputs": [],
      "stateMutability": "nonpayable",
      "type": "function"
    },
    {
      "inputs": [
        {
          "internalType": "uint256",
          "name": "",
          "type": "uint256"
        },
        {
          "internalType": "uint256",
          "name": "",
          "type": "uint256"
        }
      ],
      "name": "transferHistory",
      "outputs": [
        {
          "internalType": "address",
          "name": "",
          "type": "address"
        }
      ],
      "stateMutability": "view",
      "type": "function"
    },
    {
      "inputs": [
        {
          "internalType": "address",
          "name": "_manager",
          "type": "address"
        }
      ],
      "name": "updateManager",
      "outputs": [],
      "stateMutability": "nonpayable",
      "type": "function"
    }
  ],
  "bytecode": "0x608060405267016345785d8a0000600a60006101000a8154816fffffffffffffffffffffffffffffffff02191690836fffffffffffffffffffffffffffffffff1602179055506010600d553480156200005757600080fd5b5060405162004d6f38038062004d6f83398181016040528101906200007d919062000210565b60405180606001604052806021815260200162004d4e602191396040518060400160405280600581526020017f47544150310000000000000000000000000000000000000000000000000000008152508160009080519060200190620000e592919062000149565b508060019080519060200190620000fe92919062000149565b50505080600e60006101000a81548173ffffffffffffffffffffffffffffffffffffffff021916908373ffffffffffffffffffffffffffffffffffffffff16021790555050620002fa565b828054620001579062000276565b90600052602060002090601f0160209004810192826200017b5760008555620001c7565b82601f106200019657805160ff1916838001178555620001c7565b82800160010185558215620001c7579182015b82811115620001c6578251825591602001919060010190620001a9565b5b509050620001d69190620001da565b5090565b5b80821115620001f5576000816000905550600101620001db565b5090565b6000815190506200020a81620002e0565b92915050565b600060208284031215620002295762000228620002db565b5b60006200023984828501620001f9565b91505092915050565b60006200024f8262000256565b9050919050565b600073ffffffffffffffffffffffffffffffffffffffff82169050919050565b600060028204905060018216806200028f57607f821691505b60208210811415620002a657620002a5620002ac565b5b50919050565b7f4e487b7100000000000000000000000000000000000000000000000000000000600052602260045260246000fd5b600080fd5b620002eb8162000242565b8114620002f757600080fd5b50565b614a44806200030a6000396000f3fe6080604052600436106101815760003560e01c806358aba00f116100d1578063a1507b501161008a578063c7a7477411610064578063c7a74774146105b0578063c87b56dd146105d9578063dedaff5414610616578063e985e9c51461065357610181565b8063a1507b5014610533578063a22cb4651461055e578063b88d4fde1461058757610181565b806358aba00f1461041e5780636352211e146104475780636a627842146104845780636d3a2617146104a057806370a08231146104cb57806395d89b411461050857610181565b806318160ddd1161013e5780632f745c59116101185780632f745c591461035057806342842e0e1461038d578063481c6a75146103b65780634f6ccce7146103e157610181565b806318160ddd146102bc5780631d9f52de146102e757806323b872dd1461032757610181565b806301ffc9a71461018657806306220534146101c357806306fdde03146101ee578063081812fc14610219578063095ea7b3146102565780630e0c2e9e1461027f575b600080fd5b34801561019257600080fd5b506101ad60048036038101906101a89190612c65565b610690565b6040516101ba9190613550565b60405180910390f35b3480156101cf57600080fd5b506101d861070a565b6040516101e5919061384e565b60405180910390f35b3480156101fa57600080fd5b50610203610761565b604051610210919061356b565b60405180910390f35b34801561022557600080fd5b50610240600480360381019061023b9190612cbf565b6107f3565b60405161024d91906134e9565b60405180910390f35b34801561026257600080fd5b5061027d60048036038101906102789190612c25565b610878565b005b34801561028b57600080fd5b506102a660048036038101906102a19190612cbf565b610990565b6040516102b3919061384e565b60405180910390f35b3480156102c857600080fd5b506102d16109a8565b6040516102de919061384e565b60405180910390f35b3480156102f357600080fd5b5061030e60048036038101906103099190612aa2565b6109b5565b60405161031e949392919061358d565b60405180910390f35b34801561033357600080fd5b5061034e60048036038101906103499190612b0f565b610ab3565b005b34801561035c57600080fd5b5061037760048036038101906103729190612c25565b610b13565b604051610384919061384e565b60405180910390f35b34801561039957600080fd5b506103b460048036038101906103af9190612b0f565b610bb8565b005b3480156103c257600080fd5b506103cb610bd8565b6040516103d891906134e9565b60405180910390f35b3480156103ed57600080fd5b5061040860048036038101906104039190612cbf565b610bfe565b604051610415919061384e565b60405180910390f35b34801561042a57600080fd5b5061044560048036038101906104409190612aa2565b610c6f565b005b34801561045357600080fd5b5061046e60048036038101906104699190612cbf565b610d43565b60405161047b91906134e9565b60405180910390f35b61049e60048036038101906104999190612aa2565b610df5565b005b3480156104ac57600080fd5b506104b5610ece565b6040516104c2919061384e565b60405180910390f35b3480156104d757600080fd5b506104f260048036038101906104ed9190612aa2565b610ed4565b6040516104ff919061384e565b60405180910390f35b34801561051457600080fd5b5061051d610f8c565b60405161052a919061356b565b60405180910390f35b34801561053f57600080fd5b5061054861101e565b604051610555919061384e565b60405180910390f35b34801561056a57600080fd5b5061058560048036038101906105809190612be5565b611024565b005b34801561059357600080fd5b506105ae60048036038101906105a99190612b62565b6111a5565b005b3480156105bc57600080fd5b506105d760048036038101906105d29190612cbf565b611207565b005b3480156105e557600080fd5b5061060060048036038101906105fb9190612cbf565b611346565b60405161060d919061356b565b60405180910390f35b34801561062257600080fd5b5061063d60048036038101906106389190612cec565b61147c565b60405161064a91906134e9565b60405180910390f35b34801561065f57600080fd5b5061067a60048036038101906106759190612acf565b6114ca565b6040516106879190613550565b60405180910390f35b60007f780e9d63000000000000000000000000000000000000000000000000000000007bffffffffffffffffffffffffffffffffffffffffffffffffffffffff1916827bffffffffffffffffffffffffffffffffffffffffffffffffffffffff1916148061070357506107028261155e565b5b9050919050565b6000662386f26fc10000600b546107219190613b31565b600a60009054906101000a90046fffffffffffffffffffffffffffffffff166fffffffffffffffffffffffffffffffff1661075c9190613902565b905090565b60606000805461077090613ce0565b80601f016020809104026020016040519081016040528092919081815260200182805461079c90613ce0565b80156107e95780601f106107be576101008083540402835291602001916107e9565b820191906000526020600020905b8154815290600101906020018083116107cc57829003601f168201915b5050505050905090565b60006107fe82611640565b61083d576040517f08c379a00000000000000000000000000000000000000000000000000000000081526004016108349061376e565b60405180910390fd5b6004600083815260200190815260200160002060009054906101000a900473ffffffffffffffffffffffffffffffffffffffff169050919050565b600061088382610d43565b90508073ffffffffffffffffffffffffffffffffffffffff168373ffffffffffffffffffffffffffffffffffffffff1614156108f4576040517f08c379a00000000000000000000000000000000000000000000000000000000081526004016108eb906137ae565b60405180910390fd5b8073ffffffffffffffffffffffffffffffffffffffff166109136116ac565b73ffffffffffffffffffffffffffffffffffffffff16148061094257506109418161093c6116ac565b6114ca565b5b610981576040517f08c379a0000000000000000000000000000000000000000000000000000000008152600401610978906136ee565b60405180910390fd5b61098b83836116b4565b505050565b60106020528060005260406000206000915090505481565b6000600880549050905090565b6060806060806000856040516020016109ce9190613324565b6040516020818303038152906040528051906020012090506000610a11826000602081106109ff576109fe613e98565b5b1a60f81b60f81c60ff1660008061176d565b90506000610a3e83600160208110610a2c57610a2b613e98565b5b1a60f81b60f81c60ff1660008061176d565b90506000610a6b84600260208110610a5957610a58613e98565b5b1a60f81b60f81c60ff1660008061176d565b90506000610a9985600360208110610a8657610a85613e98565b5b1a60f81b60f81c60ff166002600061176d565b905083838383985098509850985050505050509193509193565b610ac4610abe6116ac565b82611a63565b610b03576040517f08c379a0000000000000000000000000000000000000000000000000000000008152600401610afa906137ee565b60405180910390fd5b610b0e838383611b41565b505050565b6000610b1e83610ed4565b8210610b5f576040517f08c379a0000000000000000000000000000000000000000000000000000000008152600401610b569061360e565b60405180910390fd5b600660008473ffffffffffffffffffffffffffffffffffffffff1673ffffffffffffffffffffffffffffffffffffffff168152602001908152602001600020600083815260200190815260200160002054905092915050565b610bd3838383604051806020016040528060008152506111a5565b505050565b600e60009054906101000a900473ffffffffffffffffffffffffffffffffffffffff1681565b6000610c086109a8565b8210610c49576040517f08c379a0000000000000000000000000000000000000000000000000000000008152600401610c409061380e565b60405180910390fd5b60088281548110610c5d57610c5c613e98565b5b90600052602060002001549050919050565b600e60009054906101000a900473ffffffffffffffffffffffffffffffffffffffff1673ffffffffffffffffffffffffffffffffffffffff163373ffffffffffffffffffffffffffffffffffffffff1614610cff576040517f08c379a0000000000000000000000000000000000000000000000000000000008152600401610cf6906136ce565b60405180910390fd5b80600e60006101000a81548173ffffffffffffffffffffffffffffffffffffffff021916908373ffffffffffffffffffffffffffffffffffffffff16021790555050565b6000806002600084815260200190815260200160002060009054906101000a900473ffffffffffffffffffffffffffffffffffffffff169050600073ffffffffffffffffffffffffffffffffffffffff168173ffffffffffffffffffffffffffffffffffffffff161415610dec576040517f08c379a0000000000000000000000000000000000000000000000000000000008152600401610de39061372e565b60405180910390fd5b80915050919050565b610dfd61070a565b341015610e3f576040517f08c379a0000000000000000000000000000000000000000000000000000000008152600401610e369061382e565b60405180910390fd5b600d54600c5410610e85576040517f08c379a0000000000000000000000000000000000000000000000000000000008152600401610e7c906135ee565b60405180910390fd5b610eb381600b60008154610e9890613d43565b91905081905560405180602001604052806000815250611d9d565b600c6000815480929190610ec690613d43565b919050555050565b600c5481565b60008073ffffffffffffffffffffffffffffffffffffffff168273ffffffffffffffffffffffffffffffffffffffff161415610f45576040517f08c379a0000000000000000000000000000000000000000000000000000000008152600401610f3c9061370e565b60405180910390fd5b600360008373ffffffffffffffffffffffffffffffffffffffff1673ffffffffffffffffffffffffffffffffffffffff168152602001908152602001600020549050919050565b606060018054610f9b90613ce0565b80601f0160208091040260200160405190810160405280929190818152602001828054610fc790613ce0565b80156110145780601f10610fe957610100808354040283529160200191611014565b820191906000526020600020905b815481529060010190602001808311610ff757829003601f168201915b5050505050905090565b600d5481565b61102c6116ac565b73ffffffffffffffffffffffffffffffffffffffff168273ffffffffffffffffffffffffffffffffffffffff16141561109a576040517f08c379a00000000000000000000000000000000000000000000000000000000081526004016110919061368e565b60405180910390fd5b80600560006110a76116ac565b73ffffffffffffffffffffffffffffffffffffffff1673ffffffffffffffffffffffffffffffffffffffff16815260200190815260200160002060008473ffffffffffffffffffffffffffffffffffffffff1673ffffffffffffffffffffffffffffffffffffffff16815260200190815260200160002060006101000a81548160ff0219169083151502179055508173ffffffffffffffffffffffffffffffffffffffff166111546116ac565b73ffffffffffffffffffffffffffffffffffffffff167f17307eab39ab6107e8899845ad3d59bd9653f200f220920489ca2b5937696c31836040516111999190613550565b60405180910390a35050565b6111b66111b06116ac565b83611a63565b6111f5576040517f08c379a00000000000000000000000000000000000000000000000000000000081526004016111ec906137ee565b60405180910390fd5b61120184848484611df8565b50505050565b600e60009054906101000a900473ffffffffffffffffffffffffffffffffffffffff1673ffffffffffffffffffffffffffffffffffffffff163373ffffffffffffffffffffffffffffffffffffffff1614611297576040517f08c379a000000000000000000000000000000000000000000000000000000000815260040161128e906136ce565b60405180910390fd5b478111156112da576040517f08c379a00000000000000000000000000000000000000000000000000000000081526004016112d1906137ce565b60405180910390fd5b600e60009054906101000a900473ffffffffffffffffffffffffffffffffffffffff1673ffffffffffffffffffffffffffffffffffffffff166108fc829081150290604051600060405180830381858888f19350505050158015611342573d6000803e3d6000fd5b5050565b6060600060106000848152602001908152602001600020541461137a57601060008381526020019081526020016000205491505b6114566113898360008061176d565b61143161142c600f600087815260200190815260200160002080548060200260200160405190810160405280929190818152602001828054801561142257602002820191906000526020600020905b8160009054906101000a900473ffffffffffffffffffffffffffffffffffffffff1673ffffffffffffffffffffffffffffffffffffffff16815260200190600101908083116113d8575b5050505050611e54565b611e85565b6040516020016114429291906133b1565b604051602081830303815290604052611e85565b6040516020016114669190613422565b6040516020818303038152906040529050919050565b600f602052816000526040600020818154811061149857600080fd5b906000526020600020016000915091509054906101000a900473ffffffffffffffffffffffffffffffffffffffff1681565b6000600560008473ffffffffffffffffffffffffffffffffffffffff1673ffffffffffffffffffffffffffffffffffffffff16815260200190815260200160002060008373ffffffffffffffffffffffffffffffffffffffff1673ffffffffffffffffffffffffffffffffffffffff16815260200190815260200160002060009054906101000a900460ff16905092915050565b60007f80ac58cd000000000000000000000000000000000000000000000000000000007bffffffffffffffffffffffffffffffffffffffffffffffffffffffff1916827bffffffffffffffffffffffffffffffffffffffffffffffffffffffff1916148061162957507f5b5e139f000000000000000000000000000000000000000000000000000000007bffffffffffffffffffffffffffffffffffffffffffffffffffffffff1916827bffffffffffffffffffffffffffffffffffffffffffffffffffffffff1916145b8061163957506116388261200a565b5b9050919050565b60008073ffffffffffffffffffffffffffffffffffffffff166002600084815260200190815260200160002060009054906101000a900473ffffffffffffffffffffffffffffffffffffffff1673ffffffffffffffffffffffffffffffffffffffff1614159050919050565b600033905090565b816004600083815260200190815260200160002060006101000a81548173ffffffffffffffffffffffffffffffffffffffff021916908373ffffffffffffffffffffffffffffffffffffffff160217905550808273ffffffffffffffffffffffffffffffffffffffff1661172783610d43565b73ffffffffffffffffffffffffffffffffffffffff167f8c5be1e5ebec7d5bd14f71427d1e84f3dd0314c0f7b2291e5b200ac8c7c3b92560405160405180910390a45050565b606060008414156117f657816117b8576040518060400160405280600181526020017f30000000000000000000000000000000000000000000000000000000000000008152506117ef565b6040518060400160405280600281526020017f30250000000000000000000000000000000000000000000000000000000000008152505b9050611a5c565b600082611804576000611807565b60015b9050600084600a6118189190613a13565b905060008690506000805b600083146118905760008160ff16111561184a57808061184290613d8c565b91505061186e565b6000600a846118599190613dda565b1461186d57808061186990613d8c565b9150505b5b818061187990613d8c565b925050600a83611889919061398f565b9250611823565b611898612971565b878160e00190151590811515815250508860ff1682846118b89190613bbf565b60ff161061191857848a6118cc919061398f565b81600001818152505088836118e19190613bbf565b816040019060ff16908160ff16815250508581604001516119029190613958565b816020019060ff16908160ff1681525050611a29565b81836119249190613bbf565b600a6119309190613a13565b8a61193b919061398f565b816000018181525050898511156119e0576002816080019060ff16908160ff16815250506002838a61196d9190613bbf565b6119779190613958565b8160a0019060ff16908160ff16815250508060a00151826119989190613958565b816040019060ff16908160ff16815250508581604001516119b99190613958565b816020019060ff16908160ff168152505060018160c0019015159081151581525050611a28565b6001826119ed9190613958565b816040019060ff16908160ff168152505060018984611a0c9190613bbf565b611a169190613958565b816060019060ff16908160ff16815250505b5b858160400151611a399190613958565b816020019060ff16908160ff1681525050611a5381612074565b96505050505050505b9392505050565b6000611a6e82611640565b611aad576040517f08c379a0000000000000000000000000000000000000000000000000000000008152600401611aa4906136ae565b60405180910390fd5b6000611ab883610d43565b90508073ffffffffffffffffffffffffffffffffffffffff168473ffffffffffffffffffffffffffffffffffffffff161480611b2757508373ffffffffffffffffffffffffffffffffffffffff16611b0f846107f3565b73ffffffffffffffffffffffffffffffffffffffff16145b80611b385750611b3781856114ca565b5b91505092915050565b8273ffffffffffffffffffffffffffffffffffffffff16611b6182610d43565b73ffffffffffffffffffffffffffffffffffffffff1614611bb7576040517f08c379a0000000000000000000000000000000000000000000000000000000008152600401611bae9061378e565b60405180910390fd5b600073ffffffffffffffffffffffffffffffffffffffff168273ffffffffffffffffffffffffffffffffffffffff161415611c27576040517f08c379a0000000000000000000000000000000000000000000000000000000008152600401611c1e9061366e565b60405180910390fd5b611c328383836123f0565b611c3d6000826116b4565b6001600360008573ffffffffffffffffffffffffffffffffffffffff1673ffffffffffffffffffffffffffffffffffffffff1681526020019081526020016000206000828254611c8d9190613b8b565b925050819055506001600360008473ffffffffffffffffffffffffffffffffffffffff1673ffffffffffffffffffffffffffffffffffffffff1681526020019081526020016000206000828254611ce49190613902565b92505081905550816002600083815260200190815260200160002060006101000a81548173ffffffffffffffffffffffffffffffffffffffff021916908373ffffffffffffffffffffffffffffffffffffffff160217905550808273ffffffffffffffffffffffffffffffffffffffff168473ffffffffffffffffffffffffffffffffffffffff167fddf252ad1be2c89b69c2b068fc378daa952ba7f163c4a11628f55a4df523b3ef60405160405180910390a4505050565b611da783836124f6565b611db460008484846126c4565b611df3576040517f08c379a0000000000000000000000000000000000000000000000000000000008152600401611dea9061362e565b60405180910390fd5b505050565b611e03848484611b41565b611e0f848484846126c4565b611e4e576040517f08c379a0000000000000000000000000000000000000000000000000000000008152600401611e459061362e565b60405180910390fd5b50505050565b6060611e5f8261285b565b604051602001611e6f9190613363565b6040516020818303038152906040529050919050565b6060600082511415611ea857604051806020016040528060008152509050612005565b60006040518060600160405280604081526020016149cf6040913990506000600360028551611ed79190613902565b611ee1919061398f565b6004611eed9190613b31565b90506000602082611efe9190613902565b67ffffffffffffffff811115611f1757611f16613ec7565b5b6040519080825280601f01601f191660200182016040528015611f495781602001600182028036833780820191505090505b509050818152600183018586518101602084015b81831015611fc4576003830192508251603f8160121c1685015160f81b8252600182019150603f81600c1c1685015160f81b8252600182019150603f8160061c1685015160f81b8252600182019150603f811685015160f81b825260018201915050611f5d565b600389510660018114611fde5760028114611fee57611ff9565b613d3d60f01b6002830352611ff9565b603d60f81b60018303525b50505050508093505050505b919050565b60007f01ffc9a7000000000000000000000000000000000000000000000000000000007bffffffffffffffffffffffffffffffffffffffffffffffffffffffff1916827bffffffffffffffffffffffffffffffffffffffffffffffffffffffff1916149050919050565b60606000826020015160ff1667ffffffffffffffff81111561209957612098613ec7565b5b6040519080825280601f01601f1916602001820160405280156120cb5781602001600182028036833780820191505090505b5090508260e0015115612149577f250000000000000000000000000000000000000000000000000000000000000081600183516121089190613b8b565b8151811061211957612118613e98565b5b60200101907effffffffffffffffffffffffffffffffffffffffffffffffffffffffffffff1916908160001a9053505b8260c001511561221c577f30000000000000000000000000000000000000000000000000000000000000008160008151811061218857612187613e98565b5b60200101907effffffffffffffffffffffffffffffffffffffffffffffffffffffffffffff1916908160001a9053507f2e00000000000000000000000000000000000000000000000000000000000000816001815181106121ec576121eb613e98565b5b60200101907effffffffffffffffffffffffffffffffffffffffffffffffffffffffffffff1916908160001a9053505b6000836080015160ff1690505b8360a0015160ff1681101561229257603060f81b8282815181106122505761224f613e98565b5b60200101907effffffffffffffffffffffffffffffffffffffffffffffffffffffffffffff1916908160001a905350808061228a90613d43565b915050612229565b505b6000836000015111156123e7576000836060015160ff161180156122c55750826060015160ff16836040015160ff16145b1561234a577f2e00000000000000000000000000000000000000000000000000000000000000818460400180516122fb90613cb6565b60ff16908160ff1681525060ff168151811061231a57612319613e98565b5b60200101907effffffffffffffffffffffffffffffffffffffffffffffffffffffffffffff1916908160001a9053505b600a836000015161235b9190613dda565b60306123679190613902565b60f81b8184604001805161237a90613cb6565b60ff16908160ff1681525060ff168151811061239957612398613e98565b5b60200101907effffffffffffffffffffffffffffffffffffffffffffffffffffffffffffff1916908160001a905350600a836000018181516123db919061398f565b91508181525050612294565b80915050919050565b6010600f60008381526020019081526020016000208054905010156124f157600f6000828152602001908152602001600020829080600181540180825580915050600190039060005260206000200160009091909190916101000a81548173ffffffffffffffffffffffffffffffffffffffff021916908373ffffffffffffffffffffffffffffffffffffffff160217905550600073ffffffffffffffffffffffffffffffffffffffff168373ffffffffffffffffffffffffffffffffffffffff16146124f0576124d583600b600081546124ca90613d43565b9190508190556124f6565b8060106000600b548152602001908152602001600020819055505b5b505050565b600073ffffffffffffffffffffffffffffffffffffffff168273ffffffffffffffffffffffffffffffffffffffff161415612566576040517f08c379a000000000000000000000000000000000000000000000000000000000815260040161255d9061374e565b60405180910390fd5b61256f81611640565b156125af576040517f08c379a00000000000000000000000000000000000000000000000000000000081526004016125a69061364e565b60405180910390fd5b6125bb600083836123f0565b6001600360008473ffffffffffffffffffffffffffffffffffffffff1673ffffffffffffffffffffffffffffffffffffffff168152602001908152602001600020600082825461260b9190613902565b92505081905550816002600083815260200190815260200160002060006101000a81548173ffffffffffffffffffffffffffffffffffffffff021916908373ffffffffffffffffffffffffffffffffffffffff160217905550808273ffffffffffffffffffffffffffffffffffffffff16600073ffffffffffffffffffffffffffffffffffffffff167fddf252ad1be2c89b69c2b068fc378daa952ba7f163c4a11628f55a4df523b3ef60405160405180910390a45050565b60006126e58473ffffffffffffffffffffffffffffffffffffffff166128c9565b1561284e578373ffffffffffffffffffffffffffffffffffffffff1663150b7a0261270e6116ac565b8786866040518563ffffffff1660e01b81526004016127309493929190613504565b602060405180830381600087803b15801561274a57600080fd5b505af192505050801561277b57506040513d601f19601f820116820180604052508101906127789190612c92565b60015b6127fe573d80600081146127ab576040519150601f19603f3d011682016040523d82523d6000602084013e6127b0565b606091505b506000815114156127f6576040517f08c379a00000000000000000000000000000000000000000000000000000000081526004016127ed9061362e565b60405180910390fd5b805181602001fd5b63150b7a0260e01b7bffffffffffffffffffffffffffffffffffffffffffffffffffffffff1916817bffffffffffffffffffffffffffffffffffffffffffffffffffffffff191614915050612853565b600190505b949350505050565b606060005b82518110156128c3578161288e8483815181106128805761287f613e98565b5b6020026020010151836128dc565b60405160200161289f92919061333f565b604051602081830303815290604052915080806128bb90613d43565b915050612860565b50919050565b600080823b905060008111915050919050565b60606000806000806128ed876109b5565b935093509350935061291960326004886129079190613dda565b6129119190613b31565b60008061176d565b61293d603260048961292b919061398f565b6129359190613b31565b60008061176d565b8585858560405160200161295696959493929190613444565b60405160208183030381529060405294505050505092915050565b60405180610100016040528060008152602001600060ff168152602001600060ff168152602001600060ff168152602001600060ff168152602001600060ff1681526020016000151581526020016000151581525090565b60006129dc6129d78461388e565b613869565b9050828152602081018484840111156129f8576129f7613efb565b5b612a03848285613c74565b509392505050565b600081359050612a1a81614972565b92915050565b600081359050612a2f81614989565b92915050565b600081359050612a44816149a0565b92915050565b600081519050612a59816149a0565b92915050565b600082601f830112612a7457612a73613ef6565b5b8135612a848482602086016129c9565b91505092915050565b600081359050612a9c816149b7565b92915050565b600060208284031215612ab857612ab7613f05565b5b6000612ac684828501612a0b565b91505092915050565b60008060408385031215612ae657612ae5613f05565b5b6000612af485828601612a0b565b9250506020612b0585828601612a0b565b9150509250929050565b600080600060608486031215612b2857612b27613f05565b5b6000612b3686828701612a0b565b9350506020612b4786828701612a0b565b9250506040612b5886828701612a8d565b9150509250925092565b60008060008060808587031215612b7c57612b7b613f05565b5b6000612b8a87828801612a0b565b9450506020612b9b87828801612a0b565b9350506040612bac87828801612a8d565b925050606085013567ffffffffffffffff811115612bcd57612bcc613f00565b5b612bd987828801612a5f565b91505092959194509250565b60008060408385031215612bfc57612bfb613f05565b5b6000612c0a85828601612a0b565b9250506020612c1b85828601612a20565b9150509250929050565b60008060408385031215612c3c57612c3b613f05565b5b6000612c4a85828601612a0b565b9250506020612c5b85828601612a8d565b9150509250929050565b600060208284031215612c7b57612c7a613f05565b5b6000612c8984828501612a35565b91505092915050565b600060208284031215612ca857612ca7613f05565b5b6000612cb684828501612a4a565b91505092915050565b600060208284031215612cd557612cd4613f05565b5b6000612ce384828501612a8d565b91505092915050565b60008060408385031215612d0357612d02613f05565b5b6000612d1185828601612a8d565b9250506020612d2285828601612a8d565b9150509250929050565b612d3581613bf3565b82525050565b612d4c612d4782613bf3565b613db6565b82525050565b612d5b81613c05565b82525050565b6000612d6c826138bf565b612d7681856138d5565b9350612d86818560208601613c83565b612d8f81613f0a565b840191505092915050565b6000612da5826138ca565b612daf81856138e6565b9350612dbf818560208601613c83565b612dc881613f0a565b840191505092915050565b6000612dde826138ca565b612de881856138f7565b9350612df8818560208601613c83565b80840191505092915050565b6000612e11602b836138e6565b9150612e1c82613f35565b604082019050919050565b6000612e34601d836138f7565b9150612e3f82613f84565b601d82019050919050565b6000612e57602b836138e6565b9150612e6282613fad565b604082019050919050565b6000612e7a6032836138e6565b9150612e8582613ffc565b604082019050919050565b6000612e9d6002836138f7565b9150612ea88261404b565b600282019050919050565b6000612ec0601c836138e6565b9150612ecb82614074565b602082019050919050565b6000612ee4610135836138f7565b9150612eef8261409d565b61013582019050919050565b6000612f086008836138f7565b9150612f138261421e565b600882019050919050565b6000612f2b6001836138f7565b9150612f3682614247565b600182019050919050565b6000612f4e6024836138e6565b9150612f5982614270565b604082019050919050565b6000612f716019836138e6565b9150612f7c826142bf565b602082019050919050565b6000612f94602c836138e6565b9150612f9f826142e8565b604082019050919050565b6000612fb760c2836138f7565b9150612fc282614337565b60c282019050919050565b6000612fda6016836138e6565b9150612fe582614444565b602082019050919050565b6000612ffd6038836138e6565b91506130088261446d565b604082019050919050565b60006130206033836138f7565b915061302b826144bc565b603382019050919050565b6000613043602a836138e6565b915061304e8261450b565b604082019050919050565b60006130666029836138e6565b91506130718261455a565b604082019050919050565b60006130896004836138f7565b9150613094826145a9565b600482019050919050565b60006130ac6002836138f7565b91506130b7826145d2565b600282019050919050565b60006130cf6020836138e6565b91506130da826145fb565b602082019050919050565b60006130f2600d836138f7565b91506130fd82614624565b600d82019050919050565b6000613115602c836138e6565b91506131208261464d565b604082019050919050565b60006131386012836138f7565b91506131438261469c565b601282019050919050565b600061315b6029836138e6565b9150613166826146c5565b604082019050919050565b600061317e6021836138e6565b915061318982614714565b604082019050919050565b60006131a1601d836138f7565b91506131ac82614763565b601d82019050919050565b60006131c46005836138f7565b91506131cf8261478c565b600582019050919050565b60006131e7601e836138e6565b91506131f2826147b5565b602082019050919050565b600061320a6017836138f7565b9150613215826147de565b601782019050919050565b600061322d6031836138e6565b915061323882614807565b604082019050919050565b6000613250602c836138e6565b915061325b82614856565b604082019050919050565b6000613273600d836138f7565b915061327e826148a5565b600d82019050919050565b60006132966009836138f7565b91506132a1826148ce565b600982019050919050565b60006132b96006836138f7565b91506132c4826148f7565b600682019050919050565b60006132dc601d836138e6565b91506132e782614920565b602082019050919050565b60006132ff601a836138f7565b915061330a82614949565b601a82019050919050565b61331e81613c5d565b82525050565b60006133308284612d3b565b60148201915081905092915050565b600061334b8285612dd3565b91506133578284612dd3565b91508190509392505050565b600061336e82612faa565b9150613379826131fd565b915061338482612e27565b915061338f82612efb565b915061339b8284612dd3565b91506133a6826132ac565b915081905092915050565b60006133bc82613013565b91506133c782612e90565b91506133d38285612dd3565b91506133de8261312b565b91506133e982612ed6565b91506133f4826130e5565b91506133ff826132f2565b915061340b8284612dd3565b91506134168261309f565b91508190509392505050565b600061342d82613194565b91506134398284612dd3565b915081905092915050565b600061344f82613289565b915061345b8289612dd3565b9150613466826131b7565b91506134728288612dd3565b915061347d82613266565b91506134898287612dd3565b915061349482612f1e565b91506134a08286612dd3565b91506134ab82612f1e565b91506134b78285612dd3565b91506134c282612f1e565b91506134ce8284612dd3565b91506134d98261307c565b9150819050979650505050505050565b60006020820190506134fe6000830184612d2c565b92915050565b60006080820190506135196000830187612d2c565b6135266020830186612d2c565b6135336040830185613315565b81810360608301526135458184612d61565b905095945050505050565b60006020820190506135656000830184612d52565b92915050565b600060208201905081810360008301526135858184612d9a565b905092915050565b600060808201905081810360008301526135a78187612d9a565b905081810360208301526135bb8186612d9a565b905081810360408301526135cf8185612d9a565b905081810360608301526135e38184612d9a565b905095945050505050565b6000602082019050818103600083015261360781612e04565b9050919050565b6000602082019050818103600083015261362781612e4a565b9050919050565b6000602082019050818103600083015261364781612e6d565b9050919050565b6000602082019050818103600083015261366781612eb3565b9050919050565b6000602082019050818103600083015261368781612f41565b9050919050565b600060208201905081810360008301526136a781612f64565b9050919050565b600060208201905081810360008301526136c781612f87565b9050919050565b600060208201905081810360008301526136e781612fcd565b9050919050565b6000602082019050818103600083015261370781612ff0565b9050919050565b6000602082019050818103600083015261372781613036565b9050919050565b6000602082019050818103600083015261374781613059565b9050919050565b60006020820190508181036000830152613767816130c2565b9050919050565b6000602082019050818103600083015261378781613108565b9050919050565b600060208201905081810360008301526137a78161314e565b9050919050565b600060208201905081810360008301526137c781613171565b9050919050565b600060208201905081810360008301526137e7816131da565b9050919050565b6000602082019050818103600083015261380781613220565b9050919050565b6000602082019050818103600083015261382781613243565b9050919050565b60006020820190508181036000830152613847816132cf565b9050919050565b60006020820190506138636000830184613315565b92915050565b6000613873613884565b905061387f8282613d12565b919050565b6000604051905090565b600067ffffffffffffffff8211156138a9576138a8613ec7565b5b6138b282613f0a565b9050602081019050919050565b600081519050919050565b600081519050919050565b600082825260208201905092915050565b600082825260208201905092915050565b600081905092915050565b600061390d82613c5d565b915061391883613c5d565b9250827fffffffffffffffffffffffffffffffffffffffffffffffffffffffffffffffff0382111561394d5761394c613e0b565b5b828201905092915050565b600061396382613c67565b915061396e83613c67565b92508260ff0382111561398457613983613e0b565b5b828201905092915050565b600061399a82613c5d565b91506139a583613c5d565b9250826139b5576139b4613e3a565b5b828204905092915050565b6000808291508390505b6001851115613a0a578086048111156139e6576139e5613e0b565b5b60018516156139f55780820291505b8081029050613a0385613f28565b94506139ca565b94509492505050565b6000613a1e82613c5d565b9150613a2983613c67565b9250613a567fffffffffffffffffffffffffffffffffffffffffffffffffffffffffffffffff8484613a5e565b905092915050565b600082613a6e5760019050613b2a565b81613a7c5760009050613b2a565b8160018114613a925760028114613a9c57613acb565b6001915050613b2a565b60ff841115613aae57613aad613e0b565b5b8360020a915084821115613ac557613ac4613e0b565b5b50613b2a565b5060208310610133831016604e8410600b8410161715613b005782820a905083811115613afb57613afa613e0b565b5b613b2a565b613b0d84848460016139c0565b92509050818404811115613b2457613b23613e0b565b5b81810290505b9392505050565b6000613b3c82613c5d565b9150613b4783613c5d565b9250817fffffffffffffffffffffffffffffffffffffffffffffffffffffffffffffffff0483118215151615613b8057613b7f613e0b565b5b828202905092915050565b6000613b9682613c5d565b9150613ba183613c5d565b925082821015613bb457613bb3613e0b565b5b828203905092915050565b6000613bca82613c67565b9150613bd583613c67565b925082821015613be857613be7613e0b565b5b828203905092915050565b6000613bfe82613c3d565b9050919050565b60008115159050919050565b60007fffffffff0000000000000000000000000000000000000000000000000000000082169050919050565b600073ffffffffffffffffffffffffffffffffffffffff82169050919050565b6000819050919050565b600060ff82169050919050565b82818337600083830152505050565b60005b83811015613ca1578082015181840152602081019050613c86565b83811115613cb0576000848401525b50505050565b6000613cc182613c67565b91506000821415613cd557613cd4613e0b565b5b600182039050919050565b60006002820490506001821680613cf857607f821691505b60208210811415613d0c57613d0b613e69565b5b50919050565b613d1b82613f0a565b810181811067ffffffffffffffff82111715613d3a57613d39613ec7565b5b80604052505050565b6000613d4e82613c5d565b91507fffffffffffffffffffffffffffffffffffffffffffffffffffffffffffffffff821415613d8157613d80613e0b565b5b600182019050919050565b6000613d9782613c67565b915060ff821415613dab57613daa613e0b565b5b600182019050919050565b6000613dc182613dc8565b9050919050565b6000613dd382613f1b565b9050919050565b6000613de582613c5d565b9150613df083613c5d565b925082613e0057613dff613e3a565b5b828206905092915050565b7f4e487b7100000000000000000000000000000000000000000000000000000000600052601160045260246000fd5b7f4e487b7100000000000000000000000000000000000000000000000000000000600052601260045260246000fd5b7f4e487b7100000000000000000000000000000000000000000000000000000000600052602260045260246000fd5b7f4e487b7100000000000000000000000000000000000000000000000000000000600052603260045260246000fd5b7f4e487b7100000000000000000000000000000000000000000000000000000000600052604160045260246000fd5b600080fd5b600080fd5b600080fd5b600080fd5b6000601f19601f8301169050919050565b60008160601b9050919050565b60008160011c9050919050565b7f5472616e736665724172743a20416c6c206f726967696e616c7320686176652060008201527f6265656e206d696e746564000000000000000000000000000000000000000000602082015250565b7f726563747b77696474683a353070783b6865696768743a353070783b7d000000600082015250565b7f455243373231456e756d657261626c653a206f776e657220696e646578206f7560008201527f74206f6620626f756e6473000000000000000000000000000000000000000000602082015250565b7f4552433732313a207472616e7366657220746f206e6f6e20455243373231526560008201527f63656976657220696d706c656d656e7465720000000000000000000000000000602082015250565b7f2023000000000000000000000000000000000000000000000000000000000000600082015250565b7f4552433732313a20746f6b656e20616c7265616479206d696e74656400000000600082015250565b7f54686520696d616765206f662074686973204e4654206973206372656174656460008201527f20627920697473206669727374203136207472616e73666572732c20706f707560208201527f6c6174696e672061203478342067726964206f6620737175617265732e20412060408201527f6e657720636f6c6f72656420737175617265206973206164646564206f6e206560608201527f616368207472616e736665722e205468652060746f602061646472657373206f60808201527f6620746865207472616e736665722064657465726d696e65732074686520636f60a08201527f6c6f722e2045616368206f662074686520666972737420313620607472616e7360c08201527f666572656420746f602061646472657373657320676574206120636f7079206f60e08201527f662074686973204e46542e2054686520696d61676520697320656e746972656c6101008201527f7920536f6c69646974792067656e6572617465642e000000000000000000000061012082015250565b7f3c2f7374796c653e000000000000000000000000000000000000000000000000600082015250565b7f2c00000000000000000000000000000000000000000000000000000000000000600082015250565b7f4552433732313a207472616e7366657220746f20746865207a65726f2061646460008201527f7265737300000000000000000000000000000000000000000000000000000000602082015250565b7f4552433732313a20617070726f766520746f2063616c6c657200000000000000600082015250565b7f4552433732313a206f70657261746f7220717565727920666f72206e6f6e657860008201527f697374656e7420746f6b656e0000000000000000000000000000000000000000602082015250565b7f3c7376672076657273696f6e3d22312e31222069643d224c617965725f31222060008201527f786d6c6e733d22687474703a2f2f7777772e77332e6f72672f323030302f737660208201527f672220786d6c6e733a786c696e6b3d22687474703a2f2f7777772e77332e6f7260408201527f672f313939392f786c696e6b2220783d223070782220793d223070782220766960608201527f6577426f783d223020302032303020323030222077696474683d22323030222060808201527f6865696768743d223230302220786d6c3a73706163653d22707265736572766560a08201527f223e00000000000000000000000000000000000000000000000000000000000060c082015250565b7f5472616e736665724172743a20666f7262696464656e00000000000000000000600082015250565b7f4552433732313a20617070726f76652063616c6c6572206973206e6f74206f7760008201527f6e6572206e6f7220617070726f76656420666f7220616c6c0000000000000000602082015250565b7f7b226e616d65223a2247656e65726174697665205472616e736665722041727460008201527f2050726f6a6563742031202d20546f6b656e2000000000000000000000000000602082015250565b7f4552433732313a2062616c616e636520717565727920666f7220746865207a6560008201527f726f206164647265737300000000000000000000000000000000000000000000602082015250565b7f4552433732313a206f776e657220717565727920666f72206e6f6e657869737460008201527f656e7420746f6b656e0000000000000000000000000000000000000000000000602082015250565b7f29222f3e00000000000000000000000000000000000000000000000000000000600082015250565b7f227d000000000000000000000000000000000000000000000000000000000000600082015250565b7f4552433732313a206d696e7420746f20746865207a65726f2061646472657373600082015250565b7f222c2022696d616765223a202200000000000000000000000000000000000000600082015250565b7f4552433732313a20617070726f76656420717565727920666f72206e6f6e657860008201527f697374656e7420746f6b656e0000000000000000000000000000000000000000602082015250565b7f222c20226465736372697074696f6e223a220000000000000000000000000000600082015250565b7f4552433732313a207472616e73666572206f6620746f6b656e2074686174206960008201527f73206e6f74206f776e0000000000000000000000000000000000000000000000602082015250565b7f4552433732313a20617070726f76616c20746f2063757272656e74206f776e6560008201527f7200000000000000000000000000000000000000000000000000000000000000602082015250565b7f646174613a6170706c69636174696f6e2f6a736f6e3b6261736536342c000000600082015250565b7f2220793d22000000000000000000000000000000000000000000000000000000600082015250565b7f5472616e736665724172743a2020616d6f756e742020746f6f20686967680000600082015250565b7f3c7374796c6520747970653d22746578742f637373223e000000000000000000600082015250565b7f4552433732313a207472616e736665722063616c6c6572206973206e6f74206f60008201527f776e6572206e6f7220617070726f766564000000000000000000000000000000602082015250565b7f455243373231456e756d657261626c653a20676c6f62616c20696e646578206f60008201527f7574206f6620626f756e64730000000000000000000000000000000000000000602082015250565b7f222066696c6c3d22726762612800000000000000000000000000000000000000600082015250565b7f3c7265637420783d220000000000000000000000000000000000000000000000600082015250565b7f3c2f7376673e0000000000000000000000000000000000000000000000000000600082015250565b7f5472616e736665724172743a204d696e742066656520746f6f206c6f77000000600082015250565b7f646174613a696d6167652f7376672b786d6c3b6261736536342c000000000000600082015250565b61497b81613bf3565b811461498657600080fd5b50565b61499281613c05565b811461499d57600080fd5b50565b6149a981613c11565b81146149b457600080fd5b50565b6149c081613c5d565b81146149cb57600080fd5b5056fe4142434445464748494a4b4c4d4e4f505152535455565758595a6162636465666768696a6b6c6d6e6f707172737475767778797a303132333435363738392b2fa26469706673582212204b9e12a0b89d78eb28e1c63c19c423890249f0002c384526df7f800bddb2912364736f6c6343000806003347656e65726174697665205472616e73666572204172742050726f6a6563742031",
  "linkReferences": {},
  "deployedLinkReferences": {}
}